:020000040800F2
:100000000000032099040008AD160008AF16000890
:10001000B1160008B3160008B5160008000000006D
:10002000000000000000000000000000B7160008FB
:10003000B916000800000000BB160008BD16000835
:10004000ED040008ED040008ED040008F5160008B2
:10005000ED040008ED040008F3160008ED040008A4
:10006000ED040008ED040008F1160008ED04000896
:10007000ED040008ED040008C1160008ED040008B6
:10008000ED040008ED040008ED040008ED0400088C
:10009000ED040008ED040008ED040008ED0400087C
:1000A000ED040008ED040008ED040008ED0400086C
:1000B000ED040008ED040008ED040008ED0400085C
:1000C000ED040008ED040008ED040008ED0400084C
:1000D000CD160008D9160008ED040008ED0400084C
:1000E000ED040008ED040008ED040008ED0400082C
:1000F000FD160008F9160008ED040008ED040008DC
:10010000ED040008ED040008ED040008ED0400080B
:10011000ED040008ED040008ED040008ED040008FB
:10012000ED040008ED040008E5160008ED040008E1
:0C013000ED040008ED040008ED040008D8
:1001400010B5054C237833B9044B13B10448AFF311
:1001500000800123237010BD8001002000000000FA
:100160006862000808B5034B1BB103490348AFF3AD
:10017000008008BD000000008401002068620008C3
:1001800053B94AB9002908BF00281CBF4FF0FF31FE
:100190004FF0FF3000F072B9ADF1080C6DE904CEFC
:1001A00000F006F8DDF804E0DDE9022304B0704752
:1001B0002DE9F047089E04468846002B4BD18A4221
:1001C000154667D9B2FA82F24AB1C2F1200701FAA4
:1001D00002F320FA07F7954047EA030894404FEAF4
:1001E000154E230CB8FBFEF71FFA85FC0EFB178893
:1001F00043EA084307FB0CF1994209D9EB1807F1D0
:10020000FF3080F01B81994240F21881023F2B445D
:100210005B1AA4B2B3FBFEF00EFB103344EA0344B6
:1002200000FB0CFCA44509D92C1900F1FF3380F028
:100230000781A44540F2048102382C4440EA07407B
:10024000A4EB0C0400271EB1D4400023C6E90043F0
:100250003946BDE8F0878B4209D9002E00F0EB80CB
:100260000027C6E9000138463946BDE8F087B3FAF1
:1002700083F7002F47D18B4202D3824200F2FA80EB
:10028000841A61EB030301209846002EE0D0C6E9F2
:100290000048DDE702B9FFDEB2FA82F2002A40F040
:1002A0008F80491B4FEA154E1FFA85F80127B1FBD5
:1002B000FEFC230C0EFB1C1143EA014308FB0CF16E
:1002C000994207D9EB180CF1FF3002D2994200F2A3
:1002D000CD808446591AA3B2B1FBFEF00EFB101478
:1002E00043EA044408FB00F8A04507D92C1900F1A3
:1002F000FF3302D2A04500F2B6801846A4EB0804F2
:1003000040EA0C409FE7C7F1200CBB4022FA0CFEEC
:100310004EEA030E01FA07F420FA0CF521FA0CF369
:100320004FEA1E482543B3FBF8F92C0C08FB1933A0
:100330001FFA8EFA44EA034309FB0AF49C4202FACC
:1003400007F200FA07F10BD91EEB030309F1FF30A6
:1003500080F087809C4240F28480A9F102097344B6
:100360001B1BADB2B3FBF8F008FB103345EA0344A6
:1003700000FB0AFAA24508D91EEB040400F1FF3382
:100380006BD2A24569D90238744440EA0940A0FB07
:100390000289A4EB0A044C45C2464B4654D351D0C3
:1003A000002E69D0B1EB0A0564EB030404FA0CFCDF
:1003B000FD40FC404CEA0505C6E90054002747E72C
:1003C000C2F1200320FA03F7954001FA02F021FA66
:1003D00003F34FEA154E3843010CB3FBFEF71FFA47
:1003E00085F80EFB173341EA034107FB08F38B4204
:1003F00004FA02F407D9691807F1FF3C2FD28B42A7
:100400002DD9023F2944CB1A81B2B3FBFEF00EFB7B
:10041000103341EA034100FB08F38B4207D9691806
:1004200000F1FF3C17D28B4215D902382944C91A72
:1004300040EA07473BE73746304609E70746E7E625
:100440001846FBE64145ABD2B8EB020A69EB0E0257
:1004500001381346A4E76046E9E7184695E7674682
:10046000D1E781467CE702382C4447E7ACF1020C27
:100470002B442FE7384608E73746E9E6704700BFC8
:10048000D458C4500433C4188C42F9D37047036065
:1004900004308842FBD370470C4885460C480D4910
:1004A0000D4A0023FFF7EFFF0C480D490023FFF72B
:1004B000F0FF0C480C490023FFF7EBFF01F0F0FBC5
:1004C00005F032FA00F0C6FEFEE70000000003204F
:1004D000040000209C0000203066000880010020FD
:1004E0009C150020D0010320580A0320FEE770B5B8
:1004F0000E4615460C46A31B9D4201DC284670BDE6
:10050000AFF3008004F8010BF5E7000008B50A4BD3
:100510001968024609B90949196018686946024410
:100520008A4206D905F0FAF90C2303604FF0FF3038
:1005300008BD1A60FCE700BF9C010020A015002048
:100540004FF0FF3070474FF400534B60002070476E
:1005500001207047002070474FF0B04382B0DA6C42
:100560000243DA64DB6C18400190019B02B07047D3
:100570004FF0B04382B0D3F84C210243C3F84C2172
:10058000D3F84C3118400190019B02B07047000035
:10059000F0B587B001F05CFC01F062FC344A354FE5
:1005A000D2F8903043F48033C2F8903004F02CFB42
:1005B0001422002101A805F0E6F900232E48DFF8F7
:1005C000BCC01C461D461E4600EBC302917951B1CA
:1005D00050F83310B94244D0614545D0B1F1904F45
:1005E00001D1928816430133222BEDD1012103233F
:1005F000029104938EB108460196FFF7ADFF0846BD
:10060000FFF7B6FF01A94FF0904001F06DFE002208
:1006100031464FF0904001F01DFF7DB10220019561
:10062000FFF79AFF0220FFF7A3FF01A9114801F08D
:100630005BFE002229460F4801F00CFF7CB104202C
:100640000194FFF789FF0420FFF792FF01A90B48EF
:1006500001F04AFE00222146084801F0FBFE07B0E7
:10066000F0BD92881543BEE792881443BBE700BFF4
:100670000008005800040048806200080008004894
:1006800070B50C4B88B001AA03F11806154618681E
:100690005968144603C40833B3422246F7D1198877
:1006A0009B782180A37005F009F8284604F0F2FB3E
:1006B00008B070BD9063000800F082BD13460A4682
:1006C0000146002000F08EBC704708B5FFF7D8FF48
:1006D00001F044F800210120BDE8084005F01AB8F7
:1006E00010B54FF0B04288B09368204C43F40043FB
:1006F000936005F007F81E49002000F095FAFFF717
:1007000047FF0121084605F005F8002001F038FAFE
:10071000012001F035FA022001F032FA012001F047
:1007200057FA0121002001F06FFA04F0E7FE114AA8
:100730000021042005F020F869460F4B0F48009473
:10074000019304F0CFFB04F58673029304F506735E
:10075000039302A840F23C5304F5497405930494B2
:1007600004F07EFF04F0C8FE08B010BDD8010320DD
:1007700010150020314F0008C9060008CB060008FC
:1007800070474FF0FF3005F043B80021042005F01A
:1007900003B8022005F02EB8022005F0A5B848B134
:1007A000C3683BB103692BB14069B0FA80F04009DE
:1007B000404270474FF0FF30704770B5054618460D
:1007C0001C46FFF7ECFF80B979B1237AE668012B6C
:1007D00018BF45F0800563682846B047002884F8B4
:1007E000450018BF6FF0030070BD4FF0FF30FBE70E
:1007F000F0B50A2A87B00646184614460F4628BFA9
:100800000A241D46FFF7CBFF88BB86B379B38AB3B2
:100810000B788DF804302B7A012B09D033461978E8
:1008200001F07F0103F8011B991BC9B2A142F6D365
:10083000012A01A90FD0012301EB4302F05C02F869
:10084000010CFA5C01F813200133DAB2A242F3D3AF
:100850006200013A92B22C696B683078A047002898
:1008600085F8450018BF6FF0030007B0F0BD4FF0EA
:10087000FF30FAE76FF00200F7E737B5E0238DF8B5
:10088000053000238DF80630B62305468DF8073075
:10089000FFF785FF28BB2B4601220DF107010DF163
:1008A0000500FFF7A5FFE0B906246B6969684FF4FE
:1008B000FA6098472B4601220DF10601F320FFF75D
:1008C0007CFF9DF8063038B9013C14F0FF0403F0BA
:1008D000010201D0002AE8D113F0010F18BF6FF018
:1008E000050003B030BD30B589B0002304468DF853
:1008F0000330FFF754FF002840F0A1800525234670
:1009000001220DF10301D020FFF757FF002840F02E
:1009100098809DF80330602B40F093802370204630
:10092000FFF7ABFF002840F08A8001461A2201A899
:1009300005F029F823461A2201A98820FFF73DFF78
:1009400000287CD19DF805209DF8043043EA02235D
:1009500023839DF807209DF8063043EA0223638332
:100960009DF809209DF8083043EA0223A3839DF8EF
:100970000B209DF80A3043EA0223E3839DF80D2003
:100980009DF80C3043EA022323849DF80F209DF844
:100990000E3043EA022363849DF811209DF8103045
:1009A00043EA0223A3849DF813209DF8123043EA02
:1009B0000223E3849DF815209DF8143043EA0223B6
:1009C00023859DF817209DF8163043EA022363859E
:1009D0009DF819209DF8183043EA0223A3859DF85D
:1009E0001B209DF81A3043EA0223E3859DF81D3051
:1009F00084F830300722234601A9E120FFF7DDFE0D
:100A0000E8B99DF805209DF804309DF9071043EAE8
:100A1000022363869DF8063084F834309DF8083050
:100A200003F00F0242EA0112E2869DF909201B0938
:100A300043EA021323879DF80A3084F83A3009B05C
:100A400030BD636961684FF47A70013D984715F0D5
:100A5000FF057FF454AF6FF00100F0E7054A906A9C
:100A6000936A80B29BB2984200D17047916A18464F
:100A70008BB2F8E700280040F0B5174B1A78824295
:100A80004FF0180415D11A78D2B25A7004FB003214
:100A9000527ED2B21A70182202FB00300122027478
:100AA0001A78062A04D119B94FF0FF32C3F89420FE
:100AB000F0BD04FB00352E7E6A7E6F7E04FB063699
:100AC000D2B2FFB2062A77761FBF2D7E04FB023218
:100AD000EDB21576DFE700BF9C00002010B50D4C8D
:100AE000D4F89430013313D0FFF7B8FFD4F8943022
:100AF0008342094B3BBFD4F894101A88D4F8942051
:100B00005218101A9A78DB785043D84080B210BD42
:100B10000020FBE79C000020A40100202DE9F0410B
:100B20003D4E3E4BD6F804809A68D8F8003012F457
:100B3000806F03D0DA6812F0040FFAE79A68384D34
:100B400022F480629A602F781823FFB203FB0753C8
:100B5000DC68FFF7C3FFA04207D9012385F898306E
:100B6000002318244FF0000C1BE033890344A342F8
:100B700039BF33890022231A012234BF9BB29BB2B2
:100B800085F89820EDE704FB075204FB0757D1686E
:100B9000884297BFD168C2F80CC0091AD1607F7E25
:100BA000FFB2062FEFD143B9FFF758FFC5F8940005
:100BB0000320BDE8F04101F0D9B9012B02D8F27849
:100BC000012A26D0013B9CB2D8F80030DA685207DF
:100BD000FCD5D968C9B261F49061D960114B4FF46A
:100BE0000022DA60032001F0D1F90C4B5A69120C93
:100BF000120422435A61FFF731FF7368C5F894006D
:100C00001A68936843F480639360AFF30080BDE893
:100C1000F0811446D8E700BFA4010020002800405E
:100C20009C0000200008005870B50D683E4E3F4CF7
:100C3000CA236B6253236B62B368616043F0200385
:100C4000B360B36803F00703C3F10403D9B2E170E2
:100C500032694FF4FE0393FAA3F3B3FA83F302F479
:100C6000FE02DA400132D2B2A2703369C3F30E033E
:100C700001332380013B5343A3F5A073CB404FF6D0
:100C8000FE72934288BF4FF6FF73294A98BF9BB20A
:100C90002381136843F400231360D2F8803043F4B7
:100CA0000023C2F88030002837D1224B012183F87D
:100CB00098104FF0FF31C3F894100621187483F890
:100CC000280083F8400083F8580083F8700083F808
:100CD00088001970AB6823F48063AB60EB68DBB20B
:100CE00063F49063EB604FF40023D360032001F0C2
:100CF0004DF963681A68936843F4804393606368AE
:100D00001B68FF2203215A620846002201F0C2F844
:100D10000320BDE8704001F0F1B8EB685B05EED54B
:100D2000032001F023F9EAE700280040A401002095
:100D3000000800589C0000202DE9F0418046EFF3A8
:100D4000108572B6234C244E032001F0E5F8676845
:100D50003B68CA225A6253225A62182303FB086373
:100D60001B7C022B24D100214046FFF785FE3378FF
:100D7000DBB2062B27D1194B9A683B6812F4806FBF
:100D800003D0DA6812F0040FFAE79A6822F480625E
:100D90009A60DA685207FCD5DA68D2B262F49062DF
:100DA000DA600F4B4FF40022DA60032001F0EEF816
:100DB00063681B68FF225A62032001F09FF885F3E5
:100DC0001088BDE8F08172789A42F1D0FFF7A6FE54
:100DD000EEE700BFA40100209C0000200028004096
:100DE000000800582DE9F8434B4C182303FB00433F
:100DF00005461B7C022B0F4601D1FFF79DFFEFF349
:100E0000108872B6032001F087F8444A53681B68C3
:100E1000CA211826596206FB05495321596202234B
:100E200089F81030C9F80C70C9F808702378DBB263
:100E3000062B17461BD12278D2B26270257089F832
:100E400019304FF0FF33C4F89430002023786278D3
:100E50009A425AD0FFF762FE7B681B68FF225A62F3
:100E6000032001F04BF888F31088BDE8F883FFF702
:100E700035FED9F80C300344C9F80C30D9F80C1001
:100E8000237806FB0343DB68994223D32378DBB244
:100E900006FB0342527ED2B2062A04D006FB02426F
:100EA000D268914212D2182101FB0342527ED2B283
:100EB000062A1CBF01FB02410D76182101FB0546E5
:100EC0007276337601FB03435D76BFE706FB03438F
:100ED0005B7EDCE722782378D2B29A4206FB02F3EB
:100EE0000FD02344197EC9B206FB0146757689F8F6
:100EF000192089F818101D762378DBB263702570ED
:100F0000A4E789F819202344F5E7182303FB0544D7
:100F1000E368181AE0609FE79C000020A40100200D
:100F2000104700002DE9F84FEFF3108772B62A4EF4
:100F300073681B684FF0CA0B4FF05308C3F824B016
:100F4000C3F824809A6822F480629A60234A147855
:100F50001825E4B205FB0425297C02292FD1D5F8F8
:100F600004A0D5F8149092F898301BB3697CC9B2EC
:100F7000012919D12046FFF77FFD87F31088A96862
:100F80002046FFF72FFF73681B685246C3F824B052
:100F90002146C3F824804846FFF7C2FF73681B68E8
:100FA000FF225A62BDE8F88F87F310882046FFF7CA
:100FB000C3FEE8E7FFF7B2FD87F31088EEE7DA68D3
:100FC0005207FCD5DA68D2B262F49062DA60044B60
:100FD0004FF40022DA60EFE7A40100209C0000201B
:100FE0000008005808B508B1002008BD0648036095
:100FF0000648074B036002F0ADFC0228F5D0032839
:10100000F3D00128F0D1F0E7001300208414002071
:10101000003801400268044B9A4203D1034B1B681D
:1010200003B11847704700BF00380140001300208B
:101030004FF0B04382B09A6C02439A649B6C1840A4
:101040000190019B02B070474FF0B04382B0DA6C60
:101050000243DA64DB6C18400190019B02B07047D8
:101060002DE9F341124C07460E4695B24FF47A78BB
:10107000CDF800802B463A467621204601F056FBFB
:1010800068B90B4C4FF47A7700972B46324676219D
:10109000204601F04BFB30B902B0BDE8F08120469C
:1010A00001F068FCE4E7204601F064FCECE700BFD7
:1010B0004C1300202DE9F341124C07460E4695B221
:1010C0004FF47A78CDF800802B463A4676212046B8
:1010D00001F02CFB68B90B4C4FF47A7700972B4644
:1010E00032467621204601F0B3FB30B902B0BDE8AC
:1010F000F081204601F03EFCE4E7204601F03AFC96
:10110000ECE700BF4C130020F0B5AFB0482200213F
:1011100008A804F038FC1C22002101A804F033FCCC
:10112000002150221AA804F02EFC01F071FC4FF0AF
:10113000B0420024D2F8903023F01803C2F8903067
:10114000D2F8003423F4C06343F40073C2F80034CF
:10115000D2F80034139403F4C06300930722009B79
:101160004FF48033CDE9082301274FF480764023E4
:1011700008A80C930225CDE90A7601F0F5FC6F234F
:10118000394601A8CDE90135CDE90344CDE905444F
:10119000079401F0C1FF43F60B031A934FF4401379
:1011A00023934FF48043CDE92B351AA81023CDE9C2
:1011B00020442A962D9302F050F92FB0F0BD000084
:1011C00038B5114A114C4FF4E1330025C4E900232E
:1011D0000C23C4E9053520464FF40043C4E9073524
:1011E000C4E902552561C4E9095503F04DFA2946C1
:1011F000204603F0CDFA2946204603F0EDFA2046BA
:10120000BDE8384003F0A9BA00380140841400203A
:1012100070B5044600F00AFE631C064602D000F0DA
:1012200011FE0444064D04E02B6923F004032B61F6
:1012300030BF00F0FBFD801BA042F5D370BD00BFA6
:1012400000ED00E0024BB0FBF3F0FFF7E1BF00BFA1
:1012500040420F004FF0B04407B500F0C5FDD4F890
:1012600094305D0113D5D4F89430D8000FD401F038
:10127000CFFB01F0CDFBD4F8903043F48033C4F8B9
:101280009030D4F8903023F48033C4F890304FF08D
:10129000B0443F22236D43F480132365236D03F490
:1012A00080130193019B564B9A609A615A6842F4ED
:1012B0007C125A605A6942F47C125A615A6842F0B0
:1012C0003F025A605A6942F03F025A61002003F01F
:1012D000C3FD58B14B4B8279C4F89C30D4F89C3094
:1012E00023F47C5343EA0223C4F89C30FFF70CFF3D
:1012F000454B464DD3F880200024C3F88040D3F8F6
:10130000902002F05002C3F890200420FFF79CFECA
:101310000120FFF799FE0220FFF796FE0420FFF759
:1013200087FE0120FFF784FE0220FFF781FE2246A0
:101330000F210E2000F0AEFD0E2000F0DFFD0F218A
:1013400022463A2000F0A6FD3A2000F0D7FD3048B2
:101350000F2247F6FF73C0E90223C0E9005404617D
:10136000C0E90644446102F06DFACA236B6253235C
:101370006B62AB68274923F00703AB60FF236B6206
:10138000254D264BAC6001262846C5E90013C5E96A
:101390000364C5E90544C5E9074401F075F9214630
:1013A000284601F0E9FA2146284601F00BFBFFF739
:1013B00007FF304600F0E4FBFFF792F94FF4FA60C4
:1013C000FFF726FF1648174B4360174BC360174BB8
:1013D0000361174B43610672FFF785FA154B1870CE
:1013E000012000F0F5FB4FF47A70FFF711FF0120A8
:1013F00000F0FCFB4FF47A70FFF70AFFF0E700BF44
:10140000000C0058FECAFECA000800580028004020
:1014100010150020005C00404C130020BB7C7000C5
:101420000413002004000020B5100008611000081B
:1014300045120008AE01002070474FF0B04382B063
:10144000DA6C0243DA64DB6C18400190019B02B055
:1014500070474FF0B04382B01A6D42F400221A6513
:101460001B6D03F400230193019B02B07047000041
:1014700010B5044686B01422002101A804F083FAB6
:101480002268114B9A421CD10420FFF7D6FF032299
:101490001223CDE9012301210023CDE90313042305
:1014A0000DEB03010948059300F01EFF4FF0B04318
:1014B0009A6D42F400029A659B6D03F40003009359
:1014C000009B06B010BD00BF005C00400008004853
:1014D000F0B514228BB0064600210DEB020004F09B
:1014E00052FA3368534A934258D14FF0B043012027
:1014F000DA6D42F00102DA65DB6D03F0010300935F
:10150000009B0227FFF799FF0C2300250824CDE953
:10151000053705A903234FF09040CDE907530994FF
:1015200000F0E2FE40234FF0904005A9CDE90537D9
:101530000994CDE90755404C00F0D6FE3F4825629E
:101540001123C4E900031023C4E902352046802397
:10155000C4E90435C4E9065500F06AFD08B1FFF797
:101560006BFF4FF08853CDE9013501A901233248C3
:101570008DF80C508DF80D50049300F08DFE08B1DD
:10158000FFF75AFF0022252074671146A66200F07B
:1015900081FC252000F0B2FC0BB0F0BD284A93423C
:1015A000FAD14FF0B04301201A6E42F480421A661D
:1015B0001B6E03F480430193019BFFF73EFF022063
:1015C000FFF73BFF00254FF400630724022705A91E
:1015D0004FF09040CDE905370994CDE9075500F06B
:1015E00083FEC023CDE905370122032305A9154851
:1015F0000994CDE90723144C00F076FE13492562C7
:101600000F23C4E900131023C4E9023520468023C8
:10161000C4E90435C4E9065500F00AFD08B1FFF736
:101620000BFF0022242074671146A66200F032FCF2
:101630002420AFE700800040341500204400024021
:1016400000380140000400482414002044040240F3
:101650000268154B9A4213B5044622D101F0D8F91D
:1016600001F0D6F94FF0B0432046D3F8902022F491
:10167000407242F48072C3F89020D3F8902042F474
:101680000042C3F890209A6D42F480629A659B6D87
:1016900003F480630193019B02B0BDE8104002F0A7
:1016A0002DB902B010BD00BF002800407047FEE712
:1016B000FEE7FEE7FEE770477047704700F0AABB01
:1016C000014800F09EBD00BF34150020014802F023
:1016D000D9B900BF84140020014802F0D3B900BF7B
:1016E00098130020014800F08CBD00BF2414002096
:1016F00070477047FFF716BC00F0AEB900F00CBAA7
:101700004FF00053074A1A60BFF34F8F0649074B4B
:10171000CA6802F4E0621343CB60BFF34F8F00BF8F
:10172000FDE700BF0106010000ED00E00400FA053E
:1017300010B504464068083003F0A2FE10B1012342
:10174000237010BD2070FCE710B1012803D0704752
:10175000032004F035B8032004F040B870B54C4BBA
:1017600092B006AA03F1280615461868596814466F
:1017700003C40833B3422246F7D118681B7923719A
:10178000444B206004A904934348444B059303F061
:101790007FFA0121022003F0BDFF414C414A0021A4
:1017A000022003F0E9FF2846002503F065FBADF8B1
:1017B000085003F0BFF923685A1C60D03A4A1168F8
:1017C0003A4A180A13701B0C9370D1700B0A090C5B
:1017D0005070137151710621002003F059F94EF633
:1017E0006E5305932368049304AA06212E2003F068
:1017F0004FF92F4A1021182003F04AF92D4A1021E1
:10180000082003F045F91821012003F06DF903F0D9
:10181000F1F80DF10E03019303AB009307220DF1D4
:101820000A030021012003F057F8234B0093BDF871
:101830000C10BDF80A000623002203F0F9F810B1DD
:101840001E4804F005F902AB0093BDF80E10BDF878
:101850000A000223002203F0EBF810B1184804F04C
:10186000F7F803F001FE174A0021012003F084FF7E
:10187000154804F0EDF800F037F812B070BD2846B6
:1018800003F0EAFA114A002818BF0246A3E700BF96
:10189000B163000828000320311700084917000829
:1018A0008075FF1FDD4C00088475FF1FAF0100200D
:1018B000DE630008EE630008446500084B6500081D
:1018C0007A65000801170008A8650008AB630008E6
:1018D000012070470021022003F05EBF012003F0C9
:1018E00089BF012004F000B800B5002197B0084678
:1018F00003F03EF900234FF4C862CDE90533CDE98A
:101900000333CDE9013300931146032002F088FF31
:10191000A0BB0A2003F04CF880BB1A4A1A4B1B48A4
:101920001B49CDE90F231B4B1B4ACDE913304FF464
:101930008070ADF85400C1208DF85600CDE90C231D
:10194000164840F60E73ADF838304FF48173CDE988
:101950000A01CDE91112ADF824300FA906231B208E
:101960008DF8263002F0FAFF40B90AA9122002F0E1
:10197000F5FF18B909A9032002F0F0FF17B05DF8D0
:1019800004FB00BF1AFF4C00021500010E0F0001FE
:10199000020304050A0B0C0D0607080911030001D8
:1019A000094BD3F8D42042F40072C3F8D4201A6A49
:1019B00042F400721A6240BF20BF044AD36843F465
:1019C0000043D360704700BF00080058000400586F
:1019D0004FF0B04307B51A6D42F480121A651B6DC3
:1019E00003F480130193019B084B1A6842F0010233
:1019F0001A601A6842F480321A602C2000F07EFAD5
:101A00002D2003B05DF804EB00F078BA000C00580C
:101A1000024A536823F0010353607047000C0058DA
:101A2000024B4FF480329A60704700BF000C0058A0
:101A3000024A536823F0020353607047000C0058B9
:101A4000044B4FF400329A605A6822F400325A6014
:101A5000704700BF000C00581E4BDA6812F0020FEE
:101A600010B51A4609D15968890306D45A6842F458
:101A700000325A6003F0D4FD10BDD3689B0707D431
:101A800053689C0304D4536843F400335360F1E774
:101A9000104CE36813F0080F23460DD16268100361
:101AA0000AD4636843F4002363600B4B1B689847B8
:101AB0004FF40023A360DFE7DA689106DCD45A68AC
:101AC0009202D9D45A6842F400125A6003F07CFDA5
:101AD000D2E700BF000C0058B801002010B5084C38
:101AE000E3681B0706D5074B1860636823F40023DF
:101AF000636010BD80474FF40023A360F9E700BF87
:101B0000000C0058B8010020024A536823F0080373
:101B100053607047000C005838B5124CE36913F05D
:101B2000020F254607D063689B0704D403F082FDAB
:101B30000223A36009E0EB69D80707D56B68D907D2
:101B400004D403F02BFD0123AB6038BD054CE369E1
:101B50001A07FAD563681B07F7D403F0C1FD082301
:101B6000E7E700BF000C00584FF0B04382B0DA6CDA
:101B70000243DA64DB6C18400190019B02B07047AD
:101B8000F0B587B004461422002101A803F0FBFE43
:101B90000220FFF7E9FF0C4B0C4D33F8146055F8A9
:101BA0002400019600270123CDE9023701A9022371
:101BB000049300F099FB3A46314655F8240000F0B2
:101BC00049FC07B0F0BD00BFFE630008080000201C
:101BD000044B33F81010044B012253F8200000F09E
:101BE00039BC00BFFE63000808000020044B33F836
:101BF0001010044B002253F8200000F02BBC00BF53
:101C0000FE6300080800002070B586B004460E464A
:101C10001422002101A803F0B6FECCB90420FFF77E
:101C2000A3FFD6B91B4B03EB44030125DB88CDE9A9
:101C300001360223CDE90353174B03EB840401A9BA
:101C4000E06800F051FB2846FFF7E2FA06B070BDED
:101C5000631E012BE5D80820E1E7012EF6D10D4DDA
:101C6000039605EB440301A9DB8801930B4B029318
:101C7000094B03EB84032C44D86800F035FB94F93E
:101C80000C40002220460F2100F004F9204600F00D
:101C900035F9DBE7FE630008080000200000211092
:101CA000174B00219960D3F8882042F47002C3F8E2
:101CB00088204FF0B0436FF4827C1A6842F0010232
:101CC0001A604FF4E0229A601868A2F1A26262449E
:101CD00002401A60D3F8942022F00502C3F8942041
:101CE000D3F8982022F00102C3F89820054ADA6060
:101CF0001A611A6822F480221A609961704700BF45
:101D000000ED00E00010042230B54FF0B04421494E
:101D10002368A068204AC3F3031300F00C000828CE
:101D200051F8235012D00C2812D0042830D11B4B6C
:101D300013604FF0B0439B68C3F3031301EB8301BF
:101D40001368096CB3FBF1F3136030BD144BEFE77C
:101D5000E068E36800F00300C3F30213022803F114
:101D600001030ED10D48B0FBF3F34FF0B040C4684F
:101D7000C068C4F30624400F63430130B3FBF0F3A3
:101D8000D6E7032801D10648EDE7B5FBF3F3ECE70E
:101D90001560CEE710640008200000200024F40045
:101DA0000048E80170B50F4D2B7806460BB90120AD
:101DB00070BD01F0F3FA2A784FF47A73B3FBF2F3B3
:101DC000B0FBF3F000F0BCF804460028EFD10F2E72
:101DD000EDD8024631464FF0FF3000F05BF86E6000
:101DE0002046E5E724000020094A136843F4807385
:101DF00010B50320136000F03BF80020FFF7D2FF7E
:101E0000044618B9FFF725FB204610BD0124FBE767
:101E100000400058034A044B11681B780B441360C0
:101E2000704700BF9415002024000020014B186863
:101E3000704700BF94150020014B5868704700BFE1
:101E400024000020014B1878704700BF24000020B8
:101E5000024A536843F0010353607047002004E0D6
:101E6000024A536843F0020353607047002004E0C5
:101E7000074AD36823F4E0631B041B0C43F0BF63E1
:101E8000000243F4003300F4E0600343D360704782
:101E900000ED00E0174B70B5DC68C4F30224C4F118
:101EA0000705042D04F1040328BF04254FF0FF3675
:101EB000062B06FA05F38CBF033C002421EA03033A
:101EC000A34006FA04F422EA0404002843EA0403C7
:101ED000A8BF00F160404FEA0313BCBF00F00F0041
:101EE000054ADBB2AABF00F56140135480F8003305
:101EF00070BD00BF00ED00E014ED00E0002808DB3D
:101F00004209012300F01F0003FA00F0014B43F8DF
:101F10002200704700E100E000280DDB43090122A8
:101F200000F01F0002FA00F02033044A42F82300B8
:101F3000BFF34F8FBFF36F8F704700BF00E100E02A
:101F40000138B0F1807F0AD2064B074A5860F02171
:101F500082F823100020072298601A607047012041
:101F6000704700BF10E000E000ED00E0002809DB52
:101F70004309012200F01F0002FA00F04033024A38
:101F800042F82300704700BF00E100E0002809DBB1
:101F90004309012200F01F0002FA00F06033024AF8
:101FA00042F82300704700BF00E100E070B5D0E9BF
:101FB00013456560446D14B1D0E916456560D0E9FC
:101FC000106404F01C050124AC4074600468636074
:101FD0008368102B0BBFA260A160E160E26070BD5E
:101FE00010490368426C8B4222F0030295BF02F154
:101FF00080420D4902F50232891898BF8264DBB233
:102000000A4AC264A3F108034FF01402B3FBF2F3CF
:102010004FF0010203F01C0302FA03F388BF81644E
:1020200003657047070402401C0802408008024014
:1020300010B5044600285DD001682F4B99424FF03F
:1020400014004AD82D4A0A44B2FBF0F292006264AE
:10205000A3F207432364022384F82530D4E9023035
:10206000034320690A68034360690343A06903438B
:10207000E0690343206A22F4FF4222F07002034326
:1020800013430B602046FFF7ABFFA368A16CB3F5C9
:10209000804F04BF002363606268D3B20B60D4E951
:1020A0001310013A032A48601FD8154A1548A06545
:1020B0001A44013B9200012103F0030301FA03F3E8
:1020C00000216265E3651160436000200123E06345
:1020D00084F8240084F8253010BD0B4B0B44B3FB6F
:1020E000F0F39B006364094BB4E70023C4E91533A4
:1020F000E365EAE70120EFE707040240F8FFFDBFD0
:102100003F82001040090240F8FBFDBF000402407E
:1021100070B590F82450012D044639D0012580F87F
:10212000245090F82550012D4FF000064FF0020585
:102130002CD180F82550C6630668356825F0010566
:102140003560FFF733FF026B0368BAB11A6842F0DB
:102150000E021A60A26C1168C90342BF116841F4F3
:1021600080711160626D1AB1116841F48071116063
:102170001A6842F001021A60002070BD1A6822F04D
:1021800004021A601A6842F00A02E2E780F824604A
:102190000220F2E790F82530022B10B503D004237B
:1021A000C363012010BD03681A6822F00E021A6092
:1021B0001A6822F001021A60826C136823F480739B
:1021C0001360D0E9101303F01C02012393404B600D
:1021D000D0E913325A60436D33B11A6822F4807229
:1021E0001A60D0E916325A60012380F82530836BDB
:1021F000002480F8244013B198472046D2E71846BF
:10220000D0E7016C426C036870B402F01C020E68E7
:102210001D680424944034420ED015F0040F0BD0F6
:102220001A6892065EBF1A6822F004021A60036BF5
:102230004C6073B370BC184702249440344212D0EF
:1022400015F0020F0FD01A68950606D41A6822F00E
:102250000A021A60012380F8253000234C6080F8C0
:102260002430C36AE5E708249440344211D02C0797
:102270000FD51C6824F00E041C60012303FA02F23F
:102280004A60C36380F82530002380F82430436B14
:10229000CFE770BC7047000090F82530012B70B577
:1022A0001BD190F82430012B19D0CB68846C5A1EB6
:1022B000D1E90036334343EAC2430A7A256843EA48
:1022C00002434A7A43EA4223064A2A4013432360E0
:1022D000002380F82430184670BD0120FCE702205E
:1022E000FAE700BFFFFD00E02DE9F04F574AD1F8B3
:1022F00000E000234FF00F093EFA03F401D1BDE8DE
:10230000F08F012404FA03F818EA0E0500F0948017
:102310004C6824F0100A4FEA430C03260AF1FF37F9
:1023200006FA0CF6012F6FEA060611D8876807EA4D
:10233000060BCF6807FA0CF747EA0B078760476878
:1023400027EA0808C4F300179F4047EA08074760D8
:10235000C76807EA06088F6807FA0CF747EA080714
:10236000BAF1020FC76014D14FEAD30800EB880816
:1023700003F0070AD8F820704FEA8A0A09FA0AFB24
:1023800027EA0B0B0F6907FA0AF747EA0B07C8F8A9
:10239000207007683E4004F0030707FA0CFC4CEA83
:1023A00006060660E60047D523F0030707F18047DD
:1023B00007F5803703F0030CBE684FEA8C0C09FA6E
:1023C0000CF8B0F1904F26EA080837D0204EB04202
:1023D00036D006F58066B04234D006F58066B0424D
:1023E00032D006F58066B04214BF0726042606FAEE
:1023F0000CF646EA0806BE60D2F88060EF4314F49B
:10240000803F0CBF3E402E43C2F88060D2F884600B
:1024100014F4003F0CBF3E402E43C2F8846016689F
:1024200014F4801F0CBF3E402E4316605668A40271
:1024300054BF3E402E43566001335DE70026D6E789
:102440000126D4E70226D2E70326D0E70008005889
:10245000000400480AB181617047816270470368D7
:102460009A69910744BF00229A629A69D2075EBFB7
:102470009A6942F001029A617047000030B5039DED
:10248000046845EA02421343C1F309021A43044BAC
:10249000606843EA555320EA03000243626030BD9E
:1024A000FF63FF03036870B50446986910F01000DD
:1024B0000D46164616D170BD691C14D0FFF7B6FC48
:1024C000801BA84200D86DB9636C43F0200363649D
:1024D000202384F84130002384F8423084F84030CF
:1024E0000120E8E7236899698A06E5D510222025AE
:1024F000DA612046DD61FFF7B2FF2268536823F0FE
:10250000FF7323F48B3323F4FF7323F00103536031
:10251000636C43F00403636484F84150DBE770B5F7
:1025200004460D46164623689B695B070ED4324667
:1025300029462046FFF7B6FFF0B923689A6991064D
:102540001CD59A69520703D5228D0AB1002070BDAF
:102550002021D9615A6822F0FF7222F48B3222F4D2
:10256000FF7222F001025A600023636484F8411074
:1025700084F8423084F840300120E8E7FFF756FC49
:10258000801BA84201D8002DCDD1636C43F02003FD
:102590006364202384F841300023EBE770B50446E0
:1025A0000D46164623689B699B0601D5002070BD29
:1025B000324629462046FFF775FF90B9FFF736FCF3
:1025C000801BA84201D8002DECD1636C43F020039E
:1025D0006364202384F84130002384F8423084F877
:1025E00040300120E3E72DE9F041069F044688468C
:1025F00016461D462268936938EA03030CBF01237F
:102600000023B34201D0002015E06B1CF3D0FFF78C
:102610000DFCC01BA84201D8002DEBD1636C43F028
:1026200020036364202384F84130002384F842307F
:1026300084F840300120BDE8F08170B504460D46B5
:10264000164623689B699B0701D5002070BD324662
:1026500029462046FFF726FFA0B96A1CF1D0FFF7F4
:10266000E5FB801BA84201D8002DEAD1636C43F042
:1026700020036364202384F84130002384F842302F
:1026800084F840300120E1E710B5044600284AD024
:1026900090F8413003F0FF021BB980F84020FEF7AC
:1026A000E7FE242384F8413023681A6822F00102EF
:1026B0001A60626822F070621A619A6822F400421D
:1026C0009A60D4E90221012924D142F400429A609F
:1026D0005A6842F0007242F400425A60DA6822F40A
:1026E0000042DA60D4E904210A43A16942EA0122E6
:1026F000DA60D4E907210A431A601A6842F001023D
:102700001A6000202023606484F84130206384F83C
:10271000420010BD42F4044202299A6004BF4FF403
:1027200000625A60D4E70120F3E700002DE9F74387
:10273000984690F84130202B04460E46914640F0D2
:10274000828090F84030012B7DD0012780F84070C6
:10275000FFF76CFB1923054600903A464FF4004101
:102760002046FFF740FF18B1012003B0BDE8F08319
:10277000212384F84130102384F842306064A4F8A7
:102780002A80638DC4F82490FF2B60632F4B26D9D9
:10279000FF22228500934FF0807331462046FFF7D9
:1027A0006DFE638D0A999BB22A462046FBB9FFF75E
:1027B000F5FE0028D8D123682021D9615A6822F07B
:1027C000FF7222F48B3222F4FF7222F001025A606F
:1027D00084F8411084F8400084F84200C5E7628D17
:1027E000009392B222854FF00073D2B2D5E7FFF783
:1027F00024FF0028B8D1636A226813F8011B916294
:102800006362638D228D013B9BB26385638D013AC8
:1028100092B29BB22285002BC3D0002AC1D1009571
:102820000A9B80212046FFF7DEFE00289CD1638DA5
:10283000FF2B03D9FF2222850090ACE7628D009028
:1028400092B22285CFE702208FE700BF00200080F0
:102850002DE9F743984690F84130202B04460E4668
:10286000914640F0838090F84030012B7ED00127C4
:1028700080F84070FFF7DAFA1923054600903A46CF
:102880004FF400412046FFF7AEFE18B1012003B01F
:10289000BDE8F083222384F84130102384F84230CD
:1028A0006064A4F82A80638DC4F82490FF2B6063D1
:1028B0002F4B26D9FF22228500934FF0807331469B
:1028C0002046FFF7DBFD638D0A999BB22A4620461E
:1028D000FBB9FFF763FE0028D8D123682021D96116
:1028E0005A6822F0FF7222F48B3222F4FF7222F037
:1028F00001025A6084F8411084F8400084F84200D4
:10290000C5E7628D009392B222854FF00073D2B278
:10291000D5E7FFF704FE0028B8D123685A6A636A36
:102920001A70636A228D01336362638D013B9BB22F
:102930006385638D013A92B29BB22285002BC2D08F
:10294000002AC0D100950A9B80212046FFF74BFE4C
:1029500000289BD1638DFF2B03D9FF222285009095
:10296000ABE7628D009092B22285CEE702208EE71F
:1029700000240080406C704790F84120D2B2202A99
:1029800010B51DD190F84030012B19D0242380F8C8
:10299000413003681C6824F001041C601C6824F4A6
:1029A00080541C601C6821431960196841F00101C2
:1029B0001960002380F8412080F84030184610BD8F
:1029C0000220FCE710B590F84140E4B2202C1CD165
:1029D00090F84030012B18D0242380F84130036850
:1029E0001A6822F001021A601A6822F4706242EA40
:1029F000012119601A6842F001021A60002380F870
:102A0000414080F84030184610BD0220FCE700002D
:102A1000024A136843F4807313607047000400583F
:102A2000024B186800F4C060704700BF00040058F3
:102A30004FF0B0431868C0F3404070474FF0B043C8
:102A40001868C0F3802070474FF0B043D3F894006B
:102A5000C0F3400070474FF0B0431868C0F3400027
:102A600070474FF0B042136823F0F0031843106032
:102A700070474FF0B043186800F0F000B02828BF4E
:102A8000B02070474FF0B042536823F47F4343EACD
:102A90000020506070470000B0282E4B2E4A98BF8F
:102AA0000009F0B58CBFDD6A53F820502B4C4FF075
:102AB000B04389B0D3F8083103F00F036E4652F8E3
:102AC0002330B5FBF3F5264BB5FBF3F5FFF7A8FF75
:102AD000074694E80F00103486E80F0094E80F00D2
:102AE000B7F5007F08AC04E90F0017D0062D24D9F4
:102AF0000C2D24D9102D24D900241A4D2B6823F035
:102B0000070323432B60FFF791F906462B6803F078
:102B100007039C4217D1002009B0F0BD002356F8EE
:102B20002320954205D808AA02EB830353F8104CE2
:102B3000E3E70133042BF2D1DEE70023F3E70123BF
:102B4000F1E70223EFE7FFF771F9801B0228DDD9D7
:102B50000320E1E7106400085064000810650008D5
:102B600040420F0000400058F8B5044608B9012063
:102B700081E003689F062AD54FF0B0429368D2687F
:102B800013F00C0305D00C2B5AD102F00303012BD8
:102B900056D1FFF760FF10B1E369002BE7D0626AFE
:102BA000FFF767FF8242606A3FD9FFF775FF002891
:102BB000DDD1606AFFF755FF206AFFF763FFFFF77B
:102BC000A3F8BA4B1868FFF7EDF80028CFD12368B7
:102BD000DE0762D423689D0700F1AD80236813F0FF
:102BE000180F40F0EE802368580700F188812368B1
:102BF000580640F1ED81A36A4FF0B045002B00F07C
:102C0000D481D5F8983043F00103C5F89830FFF728
:102C10000DF90646D5F89830990700F1D981FFF7EC
:102C200005F9801B0228F5D924E0FFF71AFF206A76
:102C3000FFF728FF606AFFF72FFF0028BFD096E755
:102C4000E2694FF0B043BAB11A6842F001021A606B
:102C5000FFF7ECF80546FFF7FEFE30B1606AFFF7BC
:102C600000FF206AFFF70EFFB1E7FFF7DFF8401B18
:102C70000228F0D90320F8BD1A6822F001021A6078
:102C8000FFF7D4F80546FFF7E6FE00289FD0FFF7D0
:102C9000CDF8401B0228F6D9ECE74FF0B04293681C
:102CA000D26803F00C03082B05D00C2B0BD102F0DB
:102CB0000303032B07D1FFF7BBFE00288AD063680C
:102CC000002B87D153E76268B2F5803F4FF0B043E5
:102CD00011D11A6842F480321A60FFF7A7F805464E
:102CE000FFF7A6FE00287FF475AFFFF79FF8401BA3
:102CF0006428F5D9BEE7B2F5A02F04D11A6842F4D2
:102D000080221A60E5E7196821F48031196019689A
:102D100021F480211960002ADFD1FFF787F80546EA
:102D2000FFF786FE00283FF455AFFFF77FF8401B02
:102D30006428F5D99EE74FF0B0429368D26803F05B
:102D40000C03042B05D00C2B14D102F00303022B2F
:102D500010D1FFF773FE18B1E368002B3FF407AF03
:102D60004FF0B0422169536823F0FE4343EA016308
:102D7000536033E7E2684FF0B04382B11A6842F41F
:102D800080721A60FFF752F80546FFF757FE0028D9
:102D9000E6D1FFF74BF8401B0228F6D96AE71A681C
:102DA00022F480721A60FFF741F80546FFF746FEED
:102DB00000283FF413AFFFF739F8401B0228F5D97C
:102DC00058E762694FF0B045002A71D0D90647D55F
:102DD000FFF73AFE58B34FF0B045D5F8943043F0C2
:102DE0000403C5F89430FFF721F80646D5F894306F
:102DF0001A072FD5D5F89430A26923F4706343EAFB
:102E00000223C5F89430D5F8943023F00103C5F8B7
:102E10009430FFF70BF80546FFF716FE00283FF445
:102E2000E2AEFFF703F8401B0228F5D922E7D5F8F8
:102E3000943043F00103C5F89430FEF7F7FF0546E0
:102E4000FFF702FE0028C6D1FEF7F0FF401B022864
:102E5000F6D90FE7FEF7EAFF801B0328C6D909E77A
:102E6000D5F8943043F00103C5F89430FEF7DEFF47
:102E70000646FFF7E9FD98B14FF0B0431D46D3F881
:102E8000942022F00402C3F89420D5F894301B0754
:102E90007FF5A9AEFEF7CAFF801B0328F5D9E9E646
:102EA000FEF7C4FF801B0228E3D9E3E628000020D8
:102EB000D5F8943023F00403C5F89430FEF7B6FF3C
:102EC0000646D5F894301F0713D4D5F8943023F074
:102ED0000103C5F89430FEF7A9FF0546FFF7B4FDDE
:102EE00000283FF480AEFEF7A1FF401B0228F5D971
:102EF000C0E6FEF79BFF801B0328E2D9BAE6844DAB
:102F00002B68D8051CD5A368012B4FF0B04525D1FF
:102F1000D5F8903043F00103C5F89030FEF786FFF6
:102F20004FF0B047064641F28835D7F890309A07FF
:102F30003FF55DAEFEF77AFF801BA842F5D999E612
:102F4000FFF766FDFEF772FF06462B68D905DAD457
:102F5000FEF76CFF801B0228F7D98BE6052B06D104
:102F6000D5F8903043F00403C5F89030D0E7D5F899
:102F7000902022F00102C5F89020D5F8902022F090
:102F80000402C5F89020002BC8D1FEF74FFF41F294
:102F900088360746D5F890309B077FF528AEFEF7B8
:102FA00045FFC01BB042F5D964E6D5F8983023F050
:102FB0000103C5F89830FEF739FF0646D5F898307A
:102FC0009A0705D5FEF732FF801B0228F6D951E695
:102FD000E16A09B900204EE64FF0B0450229AA681F
:102FE000EB6802F00C0274D1206B03F00301814204
:102FF00018D1606B03F07001814213D1A06BC3F351
:10300000062181420ED1E06B03F47811814209D18F
:10301000206C03F06061814204D1616C03F0604375
:103020008B423FD00C2A3FF4A2AD4FF0B0452B6845
:103030005B013FF59CAD2B6823F080732B60FEF79E
:10304000F5FE06462B689F0126D4D4E90C32E968C8
:103050001343304A0A401343E26B1343226C134379
:10306000626C1343A26B43EA0223EB602B6843F0CC
:1030700080732B60EB6843F08053EB60FEF7D6FE65
:103080004FF0B044054623689801A3D4FEF7CEFE66
:10309000401B0228F7D9EDE5FEF7C8FE801B022889
:1030A000D0D9E7E52B68990194D42B6843F080735D
:1030B0002B60EB6843F08053EB60FEF7B7FE0446ED
:1030C0002B689A0186D4FEF7B1FE001B0228F7D9BF
:1030D000D0E50C2A3FF44BAD2B6823F080732B60B6
:1030E000EB6823F00303EB60EB6823F0885323F4D1
:1030F0008033EB60FEF79AFE04462B689B017FF558
:1031000069AFFEF793FE001B0228F6D9B2E500BFB7
:10311000000400588C80C1112DE9F0410D46044691
:1031200010B90120BDE8F081744E336803F0070345
:103130008B4216D32368980727D54FF0B046A26874
:10314000B36823F0F0031343B360FEF76FFE074646
:10315000B368D90319D4FEF769FEC01B0228F7D95A
:1031600011E0336823F007030B433360FEF75EFE84
:103170000746336803F00703AB42DBD0FEF756FE89
:10318000C01B0228F5D90320CCE723689A0616D580
:103190004FF0B0466269D6F8083123F0F0031343CC
:1031A000C6F80831FEF742FE0746D6F808319B0301
:1031B00005D4FEF73BFEC01B0228F6D9E3E72368DF
:1031C000580617D54FF0B046A269D6F8083123F05B
:1031D0000F0343EA1213C6F80831FEF727FE07462D
:1031E000D6F80831D90305D4FEF720FEC01B02280B
:1031F000F6D9C8E723685A0713D54FF0B046E268FE
:10320000B36823F4E0631343B360FEF70FFE074691
:10321000B3689B0305D4FEF709FEC01B0228F7D94B
:10322000B1E72368180714D54FF0B0462269B36898
:1032300023F4605343EAC203B360FEF7F7FD074689
:10324000B368590305D4FEF7F1FDC01B0228F7D976
:1032500099E72368DA070DD4284C236803F00703A5
:10326000AB4237D8FEF750FDFEF7E6FDBDE8F04172
:10327000FEF798BD6368022B03D1FFF7D9FB40B975
:103280004FE7032B1FD14FF0B0431B689B017FF525
:1032900048AF4FF0B0466268B36823F003031343AE
:1032A000B360FEF7C3FD41F288380746B368626831
:1032B00003F00C03B3EB820FCED0FEF7B7FDC01BBB
:1032C0004045F3D95FE713B9FFF7C5FBD7E7FFF731
:1032D000B5FBD4E7236823F007032B432360FEF7F5
:1032E000A5FD0646236803F00703AB42BAD0FEF7FC
:1032F0009DFD801B0228F5D945E700BF004000581E
:103300004FF0B04208B5936813F00C0307D1FFF7F4
:10331000B0FB1F4BC0F3031053F8200008BD042B73
:1033200033D0082B07D113681A4813F4801F1A4BA7
:1033300008BF1846F2E7D36803F00303022B22D03C
:10334000032B18D11368134813F4801F124B18BFB6
:1033500003464FF0B042D068D168D268C0F306206F
:103360005843C1F302130133B0FBF3F0530F0133A1
:10337000B0FBF3F0D2E7FFF77CFB054BC0F3031083
:1033800053F82030E5E7034BE3E70248C6E700BF08
:10339000106400080024F4000048E80108B5FFF7B5
:1033A000AFFF4FF0B043044A9B68C3F3031352F8D6
:1033B0002330B0FBF3F008BD5064000808B5FFF7F8
:1033C000EDFF4FF0B043054A9B68C3F3022352F868
:1033D000233003F01F03D84008BD00BFF06400088D
:1033E00008B5FFF7DBFF4FF0B043054A9B68C3F316
:1033F000C22352F8233003F01F03D84008BD00BF9A
:10340000F06400084FF0B043D3F89000C0F34000E0
:1034100070474FF0B0410209D1F8883002F47F22A2
:10342000000123EA020300F47F201843C1F888005A
:1034300070474FF0B042136843F0806313607047E9
:103440004FF0B042136823F08063136070474FF071
:10345000B0431868C0F3C0607047F8B5056815F050
:103460004005044643D0036BB3F5800F15D002D856
:10347000D3B101253BE0B3F5000F02D0B3F5400F07
:10348000F7D14FF0B042216BD2F8883023F44003DB
:103490000B43C2F88830002529E04FF0B042D368D2
:1034A00043F48033D360ECE7FFF7CAFFFEF7BEFCBE
:1034B0000546FFF7CCFFA0B94FF0B0426168136931
:1034C00023F4FE4343EA012313611369A16823F443
:1034D00078130B431361FFF7ACFFFEF7A7FC05461B
:1034E000CDE0FEF7A3FC401B0228E2D903252368A8
:1034F0001A0515D54FF0B046236CD6F8907007F436
:103500004077BB420CD0FFF783FAD6F89030002FFB
:1035100040F0C080226C23F440731343C6F890300F
:103520002368DF0709D54FF0B041A069D1F88820A2
:1035300022F003020243C1F888209E0709D54FF00C
:10354000B041E069D1F8882022F440620243C1F81A
:103550008820D8060CD5A66A4FF0B040310CD0F8C0
:103560008820090422EA010242EA0642C0F88820C3
:1035700099060CD5E66A4FF0B040310CD0F888209F
:10358000090422EA010242EA0642C0F888205A07EA
:1035900002D5206AFFF73DFF23681B0702D5606A4A
:1035A000FFF737FF2368DF0511D54FF0B042616B9D
:1035B000D2F8883023F040630B43B1F1006FC2F8BA
:1035C000883040F08F80D36843F08073D3602368E5
:1035D0009E051AD5A26BB2F1004F4FF0B04303D055
:1035E00032F0804140F0B680D3F8881021F040419D
:1035F0001143B2F1C05F08BF4FF0B042C3F888106A
:1036000002BFD36843F08073D3602368580511D597
:103610004FF0B042E16BD2F8883023F040530B43B7
:10362000B1F1005FC2F8883040F0A280D36843F463
:103630008033D3602268D10409D54FF0B041606C6B
:10364000D1F8943023F440430343C1F894309304F9
:103650000DD54FF0B042E16C536A23F030030B43B9
:103660005362536AA16C23F003030B435362284651
:10367000F8BDFEF7DBFB401B02283FF637AFFFF734
:10368000E6FE0128F5D14FF0B042616913690B43A2
:103690001361F6E6D6F8902042F48032C6F8902006
:1036A000D6F8902022F48032C6F89020226C23F4C1
:1036B00040731343C6F89030D6F89030DB077FF59F
:1036C0002FAFFEF7B3FB41F288370646FFF79AFEAD
:1036D00001283FF425AFFEF7A9FB801BB842F5D9BE
:1036E00003251DE7B1F1806F7FF471AFFFF7A8FEEE
:1036F000FEF79CFB0646FFF7AAFEA0B94FF0B042CA
:103700006168136923F4FE4343EA012313611369DB
:10371000E16823F060630B431361FFF78AFEFEF755
:1037200085FB06460BE0FEF781FB801B0228E2D9F1
:1037300003254CE7FEF77AFB801B0228F8D8FFF739
:1037400086FE0128F6D14FF0B042616913690B4340
:1037500013613CE7D3F8881021F04041C3F888108A
:10376000D3F8880022F0805120F04060014340E708
:10377000B1F1805F7FF45EAFFFF762FEFEF756FBAC
:103780000646FFF764FEA0B94FF0B04261681369C6
:1037900023F4FE4343EA012313611369216923F0F3
:1037A00060430B431361FFF744FEFEF73FFB064601
:1037B0000BE0FEF73BFB801B0228E2D9032539E72B
:1037C000FEF734FB801B0228F8D8FFF740FE0128E3
:1037D000F6D14FF0B042616913690B43136129E7D9
:1037E000026838B5D36823F0A003D3600446FEF71F
:1037F0001DFB05462368DB689B0601D5002038BD0C
:10380000FEF714FB401BB0F57A7FF3D90320F6E7EF
:1038100038B50368DA685206044601D5002038BD81
:103820004FF0FF32DA60FEF701FB05462368DB68E4
:103830005B06F3D4FEF7FAFA401BB0F57A7FF5D9B0
:103840000320ECE738B50446D8B190F8213003F0F6
:10385000FF021BB980F82020FDF7FAFE022384F84E
:1038600021302368CA225A6253225A622046FFF747
:10387000CFFF2368054630B1FF225A62042384F843
:103880002130012538E09A68206922F4E00222F014
:1038900040029A60626899680243A06902430A4341
:1038A0009A60E2681A611A69A168606942EA014295
:1038B0001A61DA6822F08002DA60DA6C22F0030220
:1038C000DA64E269D96C02430A43DA649B689B06B6
:1038D0000CD42046FFF784FF40B12368FF225A62D0
:1038E000042384F8213084F82050CAE72368FF229B
:1038F0005A62012384F82130284638BD90F82030E0
:10390000012B4FF0020312D080F821300368CA2245
:103910005A6253225A629A6842F020029A60FF2249
:103920005A62012380F82130002380F820301846A5
:1039300070470268136823F490731360936823F050
:10394000805323F0010393602023C0F884300023C8
:10395000C3667047F8B504461346D4F88070202F2C
:103960003AD161B35AB394F87C20012A34D0606F05
:10397000A4F85630012500262122C4F8886084F876
:103980007C502165A4F85430C4F88020C8B1DFF819
:103990004CC02268C0F82CC0DFF844C0C0F830C06A
:1039A000DFF840C02832C0E90DC6FEF7B1FB40B1D8
:1039B0001023C4F8883084F87C60C4F8807001203B
:1039C00009E0236840221A629A68002042F08002CF
:1039D00084F87C009A60F8BD0220FCE7E939000811
:1039E000193A0008253A000808B50368826A1B687E
:1039F00013F020030BD1A2F8563013689A6822F016
:103A000080029A601A6842F040021A6008BD1046AF
:103A1000FDF700FBFAE7704708B5806AFFF7FBFF88
:103A200008BD7047816A0B68D1F88020D1F8840006
:103A300010B59C6824060FD5212A0DD10022A1F8CB
:103A400056201A6822F0C0021A609A6822F4000216
:103A50009A602022C1F880209B685B0607D5222847
:103A600005D10023A1F85E300846FFF762FFD1F8C8
:103A7000883043F01003C1F888300846FFF7D1FFC3
:103A800010BD00000268D369116870B540F60F05DB
:103A90002B42044690680BD19E0640F183808D0630
:103AA00001D4C6007ED5E36E002B75D020466DE0B4
:103AB000584E064002D1584D294273D0DD0709D532
:103AC000CD0507D501251562D4F8885045F00105CC
:103AD000C4F888509D0709D5C50707D5022515628A
:103AE000D4F8885045F00405C4F888505D0709D51E
:103AF000C50707D504251562D4F8885045F002059E
:103B0000C4F888501D070AD58D0600D43EB108259B
:103B10001562D4F8885045F00805C4F888501E0591
:103B20000AD54D0108D54FF400651562D4F88820F8
:103B300042F02002C4F88820D4F8882062B39E06A0
:103B400007D58D0601D4C00003D5E36E0BB1204626
:103B500098472268D4F8885092685106204602D4CB
:103B600015F0280519D0FFF7E4FE23689A6852067D
:103B70000FD59A68A06F22F040029A6048B1274B97
:103B80008363FEF707FB38B1A06F836BBDE870401D
:103B900018472046FFF745FF70BDFFF742FFC4F806
:103BA0008850F9E7DE0209D5450207D54FF48013A6
:103BB00020461362BDE8704000F0CCBD1E0605D55E
:103BC0000D0601D4000201D5236F6DE75E060ED508
:103BD0004D060CD5136823F0400313602023C4F86E
:103BE0008030002323672046FDF714FAD4E718023B
:103BF00006D54A0004D52046BDE8704000F0ACBDB3
:103C0000DB01C9D50029C7DA2046BDE8704000F0C5
:103C1000A2BD00BF0100001020010004213C0008EB
:103C200008B5806A0023A0F85E30A0F85630FFF790
:103C3000F8FE08BD000000000368C16982682DE934
:103C4000F048044600691D68024360690243606EE3
:103C50000A430243AC48284002431A605A68E068AD
:103C600022F4405202435A60A84AA06993421CBF02
:103C7000226A10439A6822F06E4222F430620243B4
:103C80009A60DA6A606A22F00F020243DA62A04A9E
:103C900093421AD14FF0B0439E4AD3F8883003F0D4
:103CA0000303B1F5004FD35C03F1FF3340F03483DD
:103CB000072B00F22E83DFE813F02A0251022C03B7
:103CC00098022C032C032C03B102904A934240F03B
:103CD000EF834FF0B043D3F8883003F44063B3F57B
:103CE000806F00F0AC800AD8C3B3012200234FF0EC
:103CF0000111C4E91A1323671046BDE8F088B3F533
:103D0000006F65D0B3F5406FEFD1002800F0E78079
:103D1000012800F0E880022800F0E980032800F084
:103D2000EA80042800F0EB80052800F00B810628CB
:103D300000F00C81072800F00D81082800F00E81AA
:103D4000092800F00F810A2800F010810B284FF09D
:103D5000080114BF4FF40040802058E0FFF72EFB0D
:103D6000636AFBB1012B1FD0022B1FD0032B1FD086
:103D7000042B1FD0052B1FD0062B1FD0072B1FD0C5
:103D8000082B1FD0092B1FD00A2B1FD00B2B14BFC1
:103D900001234FF480730021B0FBF3F0002836D1EB
:103DA0000246A3E70123F6E70223F4E70423F2E740
:103DB0000623F0E70823EEE70A23ECE70C23EAE703
:103DC0001023E8E72023E6E74023E4E78023E2E747
:103DD00000286BD001286CD002286DD003284FF04A
:103DE00002016CD004286CD005286CD006286CD059
:103DF00007286CD008286CD009286CD00A286CD011
:103E0000454B4FF224420B2814BF184610466268F7
:103E100002EB420383423FF668AFB0EB023F3FF64E
:103E200064AF082900F27081DFE811F0A4006E0190
:103E3000E0006E011C016E016E016E013501FFF79D
:103E40005FFA636AE3B1012B1CD0022B1CD0032B59
:103E50001CD0042B1CD0052B1CD0062B1CD0072BF0
:103E60001CD0082B1CD0092B1CD00A2B1CD00B2BD0
:103E700014BF01234FF48073B0FBF3F004218DE7EE
:103E80000123F9E70223F7E70423F5E70623F3E725
:103E90000823F1E70A23EFE70C23EDE71023EBE714
:103EA0002023E9E74023E7E78023E5E702211A48DA
:103EB000ADE702211948AAE701461948A7E71948C2
:103EC000A5E71948A3E71948A1E719489FE719484A
:103ED0009DE719489BE7194899E7194897E7082192
:103EE0004FF4004093E708214FF480408FE708210A
:103EF0004FF400508BE7082141F2555087E7082125
:103F00004FF4805083E700BFF369FFCF008000408B
:103F100000380140306500080024F40000127A00E7
:103F200000093D00AAB0280080841E00006A180025
:103F30005558140040420F0020A1070090D0030004
:103F400048E80100082140F6CC4060E7082140F62F
:103F5000AA205CE708214FF4006058E701464FF4BF
:103F6000806054E708214FF4007050E708214FF4B7
:103F700080704CE7FFF722FA636A002B00F089801B
:103F8000012B72D0022B72D0032B72D0042B72D073
:103F9000052B72D0062B72D0072B72D0082B72D053
:103FA000092B72D00A2B72D00B2B72D14FF4807276
:103FB00000230021FCF7E4F865680F0247EA106768
:103FC0000602680816EB000B47F1000C2A46002396
:103FD00058466146FCF7D4F80022A54BA0F5407185
:103FE00099423FF682AE2368D8607FE6636A002B71
:103FF00036D0012B16D0022B16D0032B16D0042B53
:104000001ED0052B1ED0062B1ED0072B20D0082B30
:1040100020D0092B20D00A2B20D00B2B20D1954E5D
:10402000002706E0944EFBE7944EF9E78CA7D7E90A
:104030000067550870194FF0000347F10001C9E708
:104040008F4EEDE78F4EEBE787A7D7E90067F0E7E4
:104050008D4EE5E78D4EE3E78D4EE1E78D4EDFE7D0
:104060008D4EDDE7FFF74CF986E70222A0E7042238
:104070009EE706229CE708229AE70A2298E70C228C
:1040800096E7102294E7202292E7402290E78022D0
:104090008EE701228CE7636A9BB3012B16D0022BBB
:1040A00017D0032B18D0042B18D0052B19D0062BB2
:1040B00019D0072B19D0082B1AD0092B1BD00A2B8B
:1040C0001CD00B2B1DD14FF40046A9E74FF48006FE
:1040D000A6E74FF40016A3E7704EA1E74FF4801651
:1040E0009EE76F4E9CE76F4E9AE74FF4002697E7E6
:1040F0004FF4802694E74FF4003691E74FF4803672
:104100008EE74FF400068BE70122002065E7FFF7FA
:1041100067F9616A00296BD001296BD002296BD045
:1041200003296BD004296BD005296BD006296BD0ED
:1041300007296BD008296BD009296BD00A296BD0CD
:104140000B2914BF01224FF480726168B0FBF2F2B8
:104150004B0803EB4203B3FBF1F31FE078B30128F4
:104160002FD002282FD003282FD004282FD00528A5
:104170002FD006282FD007282FD008282FD0092885
:104180002FD00A282FD0434B474A0B2814BF18467C
:104190001046636800EB5300B0FBF3F39BB20022C0
:1041A000A3F110004FF6EF7188423FF69EAD23F069
:1041B0000F012068C3F342030B43C36096E5354803
:1041C000E7E72C48E5E73948E3E73948E1E73948CC
:1041D000DFE73948DDE73948DBE73948D9E73948CF
:1041E000D7E73948D5E73948D3E7FFF789F890E7AB
:1041F0000122AAE70222A8E70422A6E70622A4E7F2
:104200000822A2E70A22A0E70C229EE710229CE7E0
:1042100020229AE7402298E7802296E7002857D08C
:10422000012858D0022859D003285AD004285BD03E
:1042300005285CD006285DD007285ED008285FD00E
:10424000092860D00A2861D00B2814BF4FF48033AE
:104250004FF48073606803EB5003B3FBF0F39DE70A
:1042600000AAB0280000000000555814000000000B
:10427000FFFC0F000024F4000000127A0000093D4A
:104280000080841E00006A180040420F0020A10731
:104290000090D0030048E801000024F40055150008
:1042A00000CC0C0000AA0A0048E8010000127A00C5
:1042B0005461510000093D0000D43000AAB028002C
:1042C00080841E0040420F0020A1070090D0030010
:1042D0004FF48033BEE74FF40043BBE74FF4804315
:1042E000B8E742F6AA23B5E74FF40053B2E741F628
:1042F0009813AFE741F25453ACE74FF48053A9E76A
:104300004FF40063A6E74FF48063A3E74FF4007314
:10431000A0E70122002343E7072B00F2CD80DFE86E
:1043200003F0042ACB6DCBCBCB86FFF759F8636A39
:10433000002B66D0012B66D0022B66D0032B66D0F3
:10434000042B66D0052B66D0062B66D0072B66D0D3
:10435000082B66D0092B66D00A2B66D00B2B14BF16
:1043600001234FF480736268B0FBF3F303EB520355
:10437000B3FBF2F320E058B301282BD002282BD056
:1043800003282BD004282BD005282BD006282BD08F
:1043900007282BD008282BD009282BD00A282BD06F
:1043A000474B4FF224420B2814BF1846104663684F
:1043B00000EB5300B0FBF3F39BB20022A3F110001B
:1043C0004FF6EF7188423FF690AC2168CB608DE4E8
:1043D0003B48ECE73B48EAE73B48E8E73B48E6E791
:1043E0003B48E4E73B48E2E73B48E0E73B48DEE7A1
:1043F0003B48DCE73B48DAE73B48D8E7FEF780FF7D
:1044000095E70123AFE70223ADE70423ABE70623DB
:10441000A9E70823A7E70A23A5E70C23A3E71023AE
:10442000A1E720239FE740239DE780239BE7F0B18E
:1044300001281FD0022820D0032821D0042822D010
:10444000052823D0062824D0072825D0082826D0E0
:10445000092827D00A2828D00B2814BF4FF400437E
:104460008023606803EB5003B3FBF0F3A4E74FF441
:104470000043F6E74FF48043F3E74FF40053F0E7CF
:1044800041F25553EDE74FF48053EAE740F6CC4351
:10449000E7E740F6AA23E4E74FF40063E1E74FF4CF
:1044A0008063DEE74FF40073DBE74FF48073D8E7F7
:1044B000B1F5004F3FF42DAF012200237EE700BF8E
:1044C0000024F40000127A0000093D00AAB0280080
:1044D00080841E00006A18005558140040420F00E6
:1044E00020A1070090D0030048E80100836ADA07A2
:1044F00010B506D50168C46A4A6822F40032224326
:104500004A609C0706D50168046B4A6822F4803231
:1045100022434A60590706D50168446B4A6822F471
:10452000802222434A601A0706D50168846B4A68D4
:1045300022F4004222434A60DC0606D50168C46BBF
:104540008A6822F4805222438A60990606D501685F
:10455000046C8A6822F4005222438A605A060FD5FE
:104560000168446C4A6822F480122243B4F5801F2B
:104570004A6005D14A68846C22F4C00222434A6032
:104580001B0606D50268C16C536823F400230B4355
:10459000536010BD2DE9F041069D04460F461646B6
:1045A00098462168CA6937EA02030CBF012200223B
:1045B000B24201D000201AE0681CF3D0FDF736FCAF
:1045C000A0EB0800A8422068036800D88DB923F446
:1045D000D0730360836823F0010383602023C4F851
:1045E0008030C4F88430002384F87C300320BDE898
:1045F000F0815A07D5D5C3691B05D2D54FF40063A6
:104600000362036823F4D0730360836823F001031B
:1046100083602023C4F88030C4F88430C4F8883024
:10462000E1E773B504460026C0F88860FDF7FEFB9D
:1046300023681B681A07054617D423681B685B07A5
:104640000AD56FF07E43009300222B464FF4800181
:104650002046FFF79FFFA0B920230020C4F8803038
:1046600084F87C00C4F884300CE06FF07E43009343
:10467000324603464FF400112046FFF78BFF002817
:10468000DBD0032002B070BD10B5044650B3D0F8A3
:1046900080301BB980F87C30FCF71AFF2268242395
:1046A000C4F88030136823F0010313602046FFF73D
:1046B000C3FA012816D0A36A13B12046FFF716FFEC
:1046C00023685A6822F490425A609A6822F02A02BB
:1046D0009A601A6842F0010220461A60BDE8104054
:1046E000FFF79FBF012010BD184A84B040F20713A6
:1046F000CDE90023164B0293A3F10323A3F58033E6
:104700000393436E23B94FF00113836604B07047DF
:1047100002689368916804AA02EB5171C3F3426383
:1047200011F8102C11F8081CD20092FBF1F2A0F83D
:104730006A2004AA134413F8102C13F8083CD20082
:1047400092FBF3F3A0F86830E0E700BF010101033A
:104750000804020470477047704790F87C30012BC2
:1047600014D002682423C0F880301168136823F045
:104770000103136021F000510023436611602022E1
:10478000C0F8802080F87C301846704702207047BF
:1047900038B590F87C30012B04461BD0012380F8FB
:1047A0007C302423C0F8803003681D681A6822F02A
:1047B00001021A609A6822F0604211439960FFF783
:1047C00093FF03681D602023C0F88030002084F828
:1047D0007C0038BD0220FCE738B590F87C30012B16
:1047E00004461BD0012380F87C302423C0F880309D
:1047F00003681D681A6822F001021A609A6822F0A4
:10480000606211439960FFF76FFF03681D6020230A
:10481000C0F88030002084F87C0038BD0220FCE71E
:104820002DE9F04FCBB04FF000099DF85C410094AA
:10483000009D9DF854618DF8280005F109070AAC28
:104840003744E519ADF82910ADF82B208DF82D303F
:1048500032469DF85031569901950CA806F1080A88
:104860008DF82E308DF82F608DF80F9000F0F0FA53
:10487000009B04F80A3004EB0A0B1A4658990BF116
:10488000010000F0E5FA009B019A093633441D4609
:10489000BDF86431E353BDF86831538049461822AE
:1048A00004A800F0D7FA0B4B04930DF10F08012375
:1048B0000435494604A80694CDE90758099300F049
:1048C00041FA4845ACBF98F80000FF204BB0BDE866
:1048D000F08F00BF3F0083002DE9F041C8B0804653
:1048E0000F4616460021072268461D4600F0B2FA20
:1048F0001822002102A88DF820808DF821708DF8F3
:10490000226000F0A7FA144B02930323059308AC2E
:104910000723002102A80494CDF818D0079300F0D3
:1049200011FA002816DB9DF8000080B9009A9DF866
:104930000330C2F30F222A809DF8042043EA0223A9
:104940004E9A1380019B4F9AC3F30F23138048B0F4
:10495000BDE8F081FF20FAE73F008A00F0B5C9B05A
:1049600000268DF82000024604460DF121008DF846
:10497000076000F06DFA1822314602A800F06AFACA
:104980000A4B02930DF10705012308AF01343146AC
:1049900002A80497CDE90545079300F0D3F9B0428A
:1049A000ACBF2878FF2049B0F0BD00BF3F008E00AB
:1049B00070B5C8B000258DF820001822294602A83D
:1049C0008DF8075000F046FA094B02930DF10704E9
:1049D000012308AE294602A80496CDE905340793C1
:1049E00000F0B0F9A842ACBF2078FF2048B070BDFD
:1049F0003F008F0010B5002488B01822214602A87D
:104A00008DF8074000F026FA084B02930DF10703DA
:104A100006932146012302A8079300F093F9A042D0
:104A2000ACBF9DF80700FF2008B010BD3F0001019A
:104A3000F0B5C9B00027ADF82000ADF822108DF810
:104A400024204E998DF825301A460DF126001C467B
:104A50008DF8077000F0FCF91822394602A800F022
:104A6000F9F90A4B02930DF10706012308AD06344C
:104A7000394602A80495CDE90546079300F062F98E
:104A8000B842ACBF3078FF2049B0F0BD3F0006010E
:104A9000F0B5C9B00C46002611468DF8200022461C
:104AA0000DF122008DF821408DF8076000F0D0F95B
:104AB0001822314602A800F0CDF90A4B02930DF1FD
:104AC0000705012308AF0234314602A80497CDE957
:104AD0000545079300F036F9B042ACBF2878FF20B7
:104AE00049B0F0BD3F000C0070B5C8B000258DF88E
:104AF00020008DF821101822294602A88DF80750B1
:104B000000F0A8F90A4B02930DF107040223CDE946
:104B1000053408AE0123294602A80496079300F045
:104B200011F9A842ACBF2078FF2048B070BD00BF8B
:104B30003F000F0010B5002488B01822214602A8BB
:104B40008DF8074000F086F94FF0031302930DF142
:104B5000070306932146012302A8079300F0F2F809
:104B6000A042ACBF9DF80700FF2008B010BD0000B8
:104B700070B5C8B000258DF820001F220DF121006E
:104B80008DF8075000F064F91822294602A800F0B9
:104B900061F90A4B02930DF107042023CDE9053496
:104BA00008AE0123294602A80496079300F0CAF82C
:104BB000A842ACBF2078FF2048B070BD08000900B3
:104BC00013B5EFF3108472B60C480DF1060100F036
:104BD00074FB0DF10601094800F0D0FB40B184F3ED
:104BE0001088074ABDF80610FBF768FD02B010BD3B
:104BF000044B01221A7084F31088F7E7BC010020EF
:104C0000C14B00082C00002007B5FBF755FD02231F
:104C100000934FF4805200230349044800F034FA13
:104C200003B05DF804FB00BFDC010020BC010020E4
:104C300070B51446EFF31085431C1BD001380128D2
:104C40001AD892B172B696B2012332460C4800F0DF
:104C50002FFA60B10B4B1A784AB100221A7085F313
:104C60001088094A3146FBF729FD204670BD85F3BF
:104C70001088FAE70024F8E74FF0FF34F5E700BFAB
:104C8000BC0100202C000020C14B0008FFF7D0BF62
:104C90007FB50F4C4B680F4E20620D46201D2360E0
:104CA00000F0CCF804F124002D6800F0B1F9304692
:104CB00040F8045B00F0ACF90123337363682BB157
:104CC00004A8054A029540F8102D984704B070BD1D
:104CD000DC11002038010020094E00081FB5164CD9
:104CE000201D00F098F9C0B9237BB3B101A9201DA4
:104CF00000F0BEF9114B01991A6A012332B104A8E0
:104D0000039100F8083D90479DF808302373237BFA
:104D100001996BB1084600F0C3FC094800F07BF92B
:104D200020B9237B13B10648FCF7D4FD04B010BDB5
:104D3000034800F07AF9F0E738010020DC11002088
:104D40003C0100202DE9F7432C4F3B6805460BB191
:104D5000002098476C882B88DFF8A890C4F30904DA
:104D600044EA8324264BD5E902121868A4B2C27221
:104D7000A0F80940D2B20C3000F0FAFD00217B69A6
:104D80000846984748F2E800FCF7ABFD4FF00008F2
:104D9000484600F040F950B1B8F1000FF2D03B683E
:104DA0000BB101209847002003B0BDE8F08301A9B2
:104DB000484600F05DF9019E737A0F2B0CD1B6F8CE
:104DC0000D30A34202BF2B69F27A1A70337B002B9D
:104DD000DED04FF00108DBE7B389A3420CD1B27AF1
:104DE0006B692869033AD2B29A42A8BF1A466A612F
:104DF00006F10E0100F0BCFDF37AE8E7DC110020BB
:104E0000380100200012002008B5437A0E3B012B28
:104E1000014606D8074800F014F90020FCF75EFDB3
:104E200008BD054800F00DF90348BDE80840FCF74F
:104E300051BD00BF001200203C010020024B036066
:104E4000024B0361704700BF4555000885550008B7
:104E500000F08EBD00F097BD054B064AD97981421E
:104E600002D0934202D1002318467047083BF5E771
:104E7000F873FF1F0070FF1F1FB500F10C026B4697
:104E800021214FF6664000F085F89DF80E0005B030
:104E90005DF804FB1FB500F10C026B460F214FF6C5
:104EA000684000F077F89DF80E0005B05DF804FB4F
:104EB00010B5054C0146204600F0C3F82046BDE879
:104EC0001040FBF762BC00BF6C010020034B0120C7
:104ED0001872034B1B6803B1184770476C01002020
:104EE0000C1200207FB50E4C4B6820620D46201D31
:104EF000236000F083F82E680A4D2846EE6000F02B
:104F000087F8FFF7E3FF01232B74636833B1064A88
:104F10000192064A0396029201A8984704B070BD18
:104F20000C1200206C010020F14F0008B14E000867
:104F30001FB5164C204600F06EF8C0B9237CB3B103
:104F400001A9204600F094F8114B01991A6A012337
:104F500032B104A8039100F8083D90479DF808304D
:104F60002374237C01996BB1084600F099FB074834
:104F700000F051F820B9237C13B10448FBF705FC7D
:104F800004B010BD014800F050F8F0E76C010020BB
:104F90000C1200202DE9F047134C984623688146F7
:104FA0000F4692460BB100209847104DE8683A46EC
:104FB0000026A0F80990C77251460C302E7200F0FE
:104FC000D7FC636931463046984748F2E800FBF762
:104FD000E3FBE9688A7808F10800033200F0C8FCB6
:104FE000BDE8F047FFF772BF0C1200206C010020F3
:104FF00008B50020FBF7CDFB08BD0000024B0360A5
:10500000024B0361704700BFD555000809560008E0
:10501000C0E900007047EFF3108272B603681B1AF4
:105020005842584182F310887047EFF3108372B6EC
:105030000268C1E9002001600A68516083F31088AA
:105040007047EFF3108372B642684A6008604160AF
:105050004A68116083F310887047EFF3108272B6CC
:10506000D0E90013196001684B6082F31088704723
:1050700010B5EFF3108472B603680B600068FFF799
:10508000ECFF84F3108810BD10B59DF80840016056
:105090000021C0E90311C0E90511426003810477D2
:1050A00014F0020003D0581A18BF0120404210BD6E
:1050B0002DE9F04F058904468B46D0E9040185B0FF
:1050C000002D029314BF4FF000084FF00208002992
:1050D00033D0002D34D166682568431CB34228BF05
:1050E0009B1B2F5CEB5C023707EB0327BFB2154617
:1050F000E36883429EBF63681B1ADA1B029B05EBC1
:10510000080088BF002203FB00F696421CD3B2FBC6
:10511000F0F300FB1323DBB2984515D2227F12F087
:10512000010F08BF0023900754BF9BB21FFA88F3FA
:1051300065B9002005B0BDE8F08F1DB92F46D6E750
:105140002F46D5E70F46D3E70023F1E731446268E5
:105150000B449342EDD82B0A019305EB08034FF063
:10516000000A9BB2D146CDF800A00393009B0299A0
:10517000206962688B4206D140449042236828BF70
:10518000801A1844D6E738449042238928BF801AF1
:1051900020618BB92268019915546268431C9A42B8
:1051A00098BF9B1A2268D154581C6368834298BFE9
:1051B000C01A63690233636163681B1A9D422E46FD
:1051C00028BF1E469D4203D9B542237F24D90BBB7D
:1051D0002368324618440BEB0A0100F0C9FB6369EF
:1051E000039F3344B1466361AE1B002056B1236870
:1051F00009EB0A0132461844594400F0B9FB6369CF
:105200001E446661A3690133A361009B01330093CF
:10521000AA44ABE7002EF5D0DA0721D5238943B99C
:1052200023680344FF2203F8022C2368184400F883
:10523000012C636922891E446661002A38D12368E3
:1052400001991D70236859706369023363612E46AA
:105250009146022008EB06070023BFB22361C5E791
:105260009B07F7D52389002B7FF463AF23680344A2
:10527000320A03F8026C236803440BEB0A0103F8BB
:10528000012C23683246184400F072FBA26963695E
:1052900001323344A26122686361AB1B1370226840
:1052A000190A517062690232B14662611E46D0E746
:1052B0004FF000092E464846CCE702890346406974
:1052C000002A4FF00002F0B514BF002602260A8023
:1052D000002852D01D891F68DC685A685DB904F146
:1052E000010C944528BFACEB020C3D5D17F80CC0D7
:1052F00005EB0C25ADB20D8093F81CC00CF0030C2F
:10530000BCF1010F20D14FF6FF7C654501D11D890D
:1053100045B11D69A54217D21D89ADB1A2EB040CA0
:10532000AC4511D20444A41A5C611C890020D860E9
:105330004CB9012A94BFC2F1010001203C78385CCD
:1053400004EB0024A4B20C80D3F80CC00C885D6977
:105350000CEB0600904204EB060128BF801A6D1A80
:1053600038445D6135B104EB0C013144914228BFF2
:10537000891AD9609A69013A9A61F0BD0389002BB4
:105380004FF000030B804369F0B514BF00250225E0
:10539000002B35D00289C668D0E9003442B9771CA9
:1053A000A74228BF3F1B9A5DDF5D02EB072292B246
:1053B0000A80077F07F00307012F1BD14FF6FF7705
:1053C000BA4201D102893AB10269B24212D20289CB
:1053D00082B1A71B97420DD202894AB9012C94BF12
:1053E000C4F1010001201A78185C02EB002292B28D
:1053F0000A800026A819A04228BF001B1844F0BD4F
:105400001846FCE770477047704770477047704711
:1054100070477047704770477047704770477047D4
:105420007047704708B5FFF7EDFFFFF7ECFFFFF798
:10543000EBFFFFF7EAFFFFF7E9FFFFF7E8FFFFF7F2
:10544000E7FFFFF7E6FFFFF7E5FFFFF7E4FFFFF7F2
:10545000E3FFFFF7E2FFFFF7E1FFFFF7E1FFFFF7F1
:10546000DEFFFFF7DEFF08BD08B5044B00221A7708
:1054700083F82020FFF7D6FF08BD00BF48010020B9
:1054800070B54378FF2B044606D1B0F8033003F41F
:105490007F43B3F5406F04D02046BDE87040FCF771
:1054A00017BA084E0025327FEBB29A42F4D956F86B
:1054B00023302046984701350028F4D0023818BF21
:1054C000012070BD4801002037B5094C094D08483E
:1054D000FFF7A1FD08B103B030BD01A92046FFF7D9
:1054E000C7FD2B6901991869FFF7ABFDEFE700BF16
:1054F0003412002000000320FCF752BA0F4B104A70
:1055000003F120011360516003F13001916003F158
:105510003C01116203F14401516203F14C01D1607D
:1055200003F15401116103F17001516103F1740140
:1055300080339161D361FCF74BBA00BF3401032083
:105540000000032038B50C4D04462846FFF760FDE7
:105550000A4BA2685B681A60E268DA6005F108022B
:10556000C3E90125FCF754FA054B22689A6062688A
:10557000DA60002038BD00BF380A03200000032095
:105580003412002008B5044B5B681B6801221A72B4
:10559000FCF746FA002008BD0000032037B5084C90
:1055A000084D0748FFF737FD08B103B030BD20466E
:1055B00001A9FFF75DFDAB6801989847F1E700BFCF
:1055C000380A032034120020014BDB68184700BF63
:1055D0003412002038B5094D04462846FFF718FD5F
:1055E000074BA268DB68C3E90025FCF721FA054BED
:1055F00022681A6162685A61002038BD500A03208F
:10560000000003203412002008B5044BDB681B683F
:1056100010221A72FCF714FA002008BD00000320C3
:10562000024BDA68024B10681B6918470000032020
:105630003412002037B5084C084D0748FFF7EBFC43
:1056400008B103B030BD204601A9FFF711FD6B6919
:1056500001989847F1E700BF500A03203412002058
:1056600038B50C4D04462846FFF7D2FC0A48FFF730
:10567000CFFC0A4BA2681B699A60E268C3E9032564
:1056800022681A6062685A6022695A6162699A6186
:1056900038BD00BFC00103203412002000000320E9
:1056A00008B501460348FFF7CCFC0348BDE80840B5
:1056B000FCF714BA34120020C954000810B5054C88
:1056C0002046FFF7A5FC044B5B691C60BDE8104059
:1056D000FCF71ABAC801032000000320704700003D
:1056E00013B5074C0648FFF796FC08B102B010BD91
:1056F000204601A9FFF7BCFC0198FFF7EFFFF1E797
:10570000C8010320024B0022C3E90022704700BFFA
:105710004C12002010B5EFF3108472B641B101298C
:1057200003D1064B5A6802435A6084F3108810BDB7
:1057300002494B6823EA00034B60F6E74C12002055
:10574000030C1B04A3B90004102310F07F4F04BF07
:105750000002083310F0704F08BF0001054A4FEAFD
:10576000107008BF0433105CC3F11F03181A704790
:105770000023EAE73465000810B51446EFF3108102
:1057800072B6FFF7DDFF034B03EB8000046181F38A
:10579000108810BD5412002030B5EFF3108572B69A
:1057A000064B1C6804431C6003EBC103D3F8902034
:1057B0000243C3F8902085F3108830BD54120020B6
:1057C000EFF3108172B6044A136823EA00031360F2
:1057D00081F31088704700BF30000020EFF3108184
:1057E00072B6034A13680343136081F3108870474D
:1057F00030000020EFF3108172B6034A5368034370
:10580000536081F31088704754120020704770472E
:105810002DE9F041324D334F6E68304068603C46B0
:10582000D5E900203B681340034240D0D7E901315D
:105830000B403CD10240D7F89000104003D1D7F87C
:10584000980001231040DB00E218D2F894100842BF
:1058500004BF4FF0FF31C2F89410E118D1F89480E2
:1058600008EA0000FFF76CFF0123E06003FA00F094
:1058700028EA0000C1F89400EFF3108172B6E268E4
:1058800093402268DB431A402260D4F898201A40E3
:10589000C4F89820D4F890201340C4F8903081F3D5
:1058A0001088E36804EB83031B699847B8E7FFF7A8
:1058B000ADFFEFF3108772B62A68236813406A6859
:1058C000134205D1D4E901231A4201D1FAF758FF56
:1058D00087F31088FFF79BFF6E60BDE8F08100BF83
:1058E0003000002054120020F8B50B4CE368A76884
:1058F000A06001269E40D4E901510D42304607D0F8
:10590000FFF71EFF25EA0105E060C4E90157F8BD75
:10591000FAF737FFEFE700BF54120020014B186879
:10592000704700BF3800002070B50D4E0D4CA41B11
:10593000A4100025A54209D10B4E0C4C00F094FC9C
:10594000A41BA4100025A54205D170BD56F8253032
:1059500098470135EEE756F8253098470135F2E7CC
:105960002866000828660008286600082C660008DB
:1059700010B5431E0A44914200D110BD11F8014BED
:1059800003F8014FF7E702440346934200D1704702
:1059900003F8011BF9E7000070B50E46054618B183
:1059A00083690BB900F00CFAAB69AC6813B92846EF
:1059B00000F006FA234B9C4217D16C68A3891B07A1
:1059C0001DD52369DBB1013EA36816F8011F013B19
:1059D000A360E9B9002B2EDA22460A21284600F0FE
:1059E0003FF8013011D00A2011E0174B9C4201D141
:1059F000AC68E3E7154B9C4208BFEC68DEE7214644
:105A0000284600F07FF80028DDD04FF0FF3070BD51
:105A1000002B04DAA2699A4206DC0A2904D0236822
:105A20005A1C22601970CFE72246284600F018F869
:105A30000130C9D1E9E723680A205A1C2260187096
:105A4000E5E700BFE065000800660008C0650008E3
:105A5000024B01461868FFF79FBF00BF38000020C7
:105A6000F8B50E461446054618B183690BB900F027
:105A7000A7F9214B9C422AD16C68A369A360A38932
:105A80001A072ED5236963B323692068C01A636996
:105A9000F6B28342374604DC2146284600F026F958
:105AA00028BBA368013BA36023685A1C22601E70B8
:105AB00063690130834204D0A389DB0719D50A2E1C
:105AC00017D12146284600F011F990B10FE00B4B99
:105AD0009C4201D1AC68D0E7094B9C4208BFEC68FE
