:020000040800F2
:10000000000003209904000861130008631300082E
:10001000651300086713000869130008000000005A
:100020000000000000000000000000006B1300084A
:100030006D130008000000006F1300087113000822
:10004000ED040008ED040008ED040008A913000801
:10005000ED040008ED040008A7130008ED040008F3
:10006000ED040008ED040008A5130008ED040008E5
:10007000ED040008ED04000875130008ED04000805
:10008000ED040008ED040008ED040008ED0400088C
:10009000ED040008ED040008ED040008ED0400087C
:1000A000ED040008ED040008ED040008ED0400086C
:1000B000ED040008ED040008ED040008ED0400085C
:1000C000ED040008ED040008ED040008ED0400084C
:1000D000811300088D130008ED040008ED040008EA
:1000E000ED040008ED040008ED040008ED0400082C
:1000F000B1130008AD130008ED040008ED0400087A
:10010000ED040008ED040008ED040008ED0400080B
:10011000ED040008ED040008ED040008ED040008FB
:10012000ED040008ED04000899130008ED04000830
:0C013000ED040008ED040008ED040008D8
:1001400010B5054C237833B9044B13B10448AFF311
:1001500000800123237010BD8001002000000000FA
:100160007C5D000808B5034B1BB103490348AFF39E
:10017000008008BD00000000840100207C5D0008B4
:1001800053B94AB9002908BF00281CBF4FF0FF31FE
:100190004FF0FF3000F072B9ADF1080C6DE904CEFC
:1001A00000F006F8DDF804E0DDE9022304B0704752
:1001B0002DE9F047089E04468846002B4BD18A4221
:1001C000154667D9B2FA82F24AB1C2F1200701FAA4
:1001D00002F320FA07F7954047EA030894404FEAF4
:1001E000154E230CB8FBFEF71FFA85FC0EFB178893
:1001F00043EA084307FB0CF1994209D9EB1807F1D0
:10020000FF3080F01B81994240F21881023F2B445D
:100210005B1AA4B2B3FBFEF00EFB103344EA0344B6
:1002200000FB0CFCA44509D92C1900F1FF3380F028
:100230000781A44540F2048102382C4440EA07407B
:10024000A4EB0C0400271EB1D4400023C6E90043F0
:100250003946BDE8F0878B4209D9002E00F0EB80CB
:100260000027C6E9000138463946BDE8F087B3FAF1
:1002700083F7002F47D18B4202D3824200F2FA80EB
:10028000841A61EB030301209846002EE0D0C6E9F2
:100290000048DDE702B9FFDEB2FA82F2002A40F040
:1002A0008F80491B4FEA154E1FFA85F80127B1FBD5
:1002B000FEFC230C0EFB1C1143EA014308FB0CF16E
:1002C000994207D9EB180CF1FF3002D2994200F2A3
:1002D000CD808446591AA3B2B1FBFEF00EFB101478
:1002E00043EA044408FB00F8A04507D92C1900F1A3
:1002F000FF3302D2A04500F2B6801846A4EB0804F2
:1003000040EA0C409FE7C7F1200CBB4022FA0CFEEC
:100310004EEA030E01FA07F420FA0CF521FA0CF369
:100320004FEA1E482543B3FBF8F92C0C08FB1933A0
:100330001FFA8EFA44EA034309FB0AF49C4202FACC
:1003400007F200FA07F10BD91EEB030309F1FF30A6
:1003500080F087809C4240F28480A9F102097344B6
:100360001B1BADB2B3FBF8F008FB103345EA0344A6
:1003700000FB0AFAA24508D91EEB040400F1FF3382
:100380006BD2A24569D90238744440EA0940A0FB07
:100390000289A4EB0A044C45C2464B4654D351D0C3
:1003A000002E69D0B1EB0A0564EB030404FA0CFCDF
:1003B000FD40FC404CEA0505C6E90054002747E72C
:1003C000C2F1200320FA03F7954001FA02F021FA66
:1003D00003F34FEA154E3843010CB3FBFEF71FFA47
:1003E00085F80EFB173341EA034107FB08F38B4204
:1003F00004FA02F407D9691807F1FF3C2FD28B42A7
:100400002DD9023F2944CB1A81B2B3FBFEF00EFB7B
:10041000103341EA034100FB08F38B4207D9691806
:1004200000F1FF3C17D28B4215D902382944C91A72
:1004300040EA07473BE73746304609E70746E7E625
:100440001846FBE64145ABD2B8EB020A69EB0E0257
:1004500001381346A4E76046E9E7184695E7674682
:10046000D1E781467CE702382C4447E7ACF1020C27
:100470002B442FE7384608E73746E9E6704700BFC8
:10048000D458C4500433C4188C42F9D37047036065
:1004900004308842FBD370470C4885460C480D4910
:1004A0000D4A0023FFF7EFFF0C480D490023FFF72B
:1004B000F0FF0C480C490023FFF7EBFF01F09AFB1B
:1004C00004F0BCFF00F01CFDFEE70000000003206C
:1004D000040000209C0000207461000880010020BE
:1004E000D0150020D0010320580A0320FEE770B584
:1004F0000E4615460C46A31B9D4201DC284670BDE6
:10050000AFF3008004F8010BF5E7000008B50A4BD3
:100510001968024609B90949196018686946024410
:100520008A4206D904F084FF0C2303604FF0FF30A9
:1005300008BD1A60FCE700BF9C010020D015002018
:100540004FF0FF3070474FF400534B60002070476E
:1005500001207047002070474FF0B04382B0DA6C42
:100560000243DA64DB6C18400190019B02B07047D3
:100570004FF0B04382B0D3F84C210243C3F84C2172
:10058000D3F84C3118400190019B02B07047000035
:10059000F0B587B001F006FC01F00CFC344A354F91
:1005A000D2F8903043F48033C2F8903004F0B6F8BB
:1005B0001422002101A804F070FF00232E48DFF868
:1005C000BCC01C461D461E4600EBC302917951B1CA
:1005D00050F83310B94244D0614545D0B1F1904F45
:1005E00001D1928816430133222BEDD1012103233F
:1005F000029104938EB108460196FFF7ADFF0846BD
:10060000FFF7B6FF01A94FF0904001F017FE00225E
:1006100031464FF0904001F0C7FE7DB102200195B8
:10062000FFF79AFF0220FFF7A3FF01A9114801F08D
:1006300005FE002229460F4801F0B6FE7CB10420D9
:100640000194FFF789FF0420FFF792FF01A90B48EF
:1006500001F0F4FD00222146084801F0A5FE07B094
:10066000F0BD92881543BEE792881443BBE700BFF4
:100670000008005800040048945D00080008004885
:1006800070B50C4B88B001AA03F11806154618681E
:100690005968144603C40833B3422246F7D1198877
:1006A0009B782180A37004F093FD284604F07CF928
:1006B00008B070BDA45E000800F0FABB13460A46FD
:1006C0000146002000F05ABB704708B5FFF7D8FF7D
:1006D00000F09EFE00210120BDE8084004F0A4BD0A
:1006E00010B54FF0B04288B09368204C43F40043FB
:1006F000936004F091FD1E49002000F037F9FFF7E8
:1007000047FF0121084604F08FFD002001F0F0F9B9
:10071000012001F0EDF9022001F0EAF9012001F0D9
:100720000FFA0121002001F019FA04F071FC114ABE
:100730000021042004F0AAFD69460F4B0F480094E5
:10074000019304F059F904F58673029304F50673D6
:10075000039302A840F23C5304F5497405930494B2
:1007600004F008FD04F052FC08B010BDD8010320CD
:1007700014150020454A0008C9060008CB060008E9
:1007800070474FF0FF3004F0CDBD0021042004F08D
:100790008DBD022004F0B8BD022004F02FBE000081
:1007A000054A906A936A80B29BB2984200D1704722
:1007B000916A18468BB2F8E700280040F0B5174B55
:1007C0001A7882424FF0180415D11A78D2B25A70B2
:1007D00004FB0032527ED2B21A70182202FB0030A3
:1007E000012202741A78062A04D119B94FF0FF3297
:1007F000C3F89420F0BD04FB00352E7E6A7E6F7E28
:1008000004FB0636D2B2FFB2062A77761FBF2D7ED2
:1008100004FB0232EDB21576DFE700BF9C0000203A
:1008200010B50D4CD4F89430013313D0FFF7B8FF56
:10083000D4F894308342094B3BBFD4F894101A8803
:10084000D4F894205218101A9A78DB785043D84084
:1008500080B210BD0020FBE79C000020A401002016
:100860002DE9F0413D4E3E4BD6F804809A68D8F809
:10087000003012F4806F03D0DA6812F0040FFAE748
:100880009A68384D22F480629A602F781823FFB25C
:1008900003FB0753DC68FFF7C3FFA04207D901231E
:1008A00085F89830002318244FF0000C1BE03389A2
:1008B0000344A34239BF33890022231A012234BFE3
:1008C0009BB29BB285F89820EDE704FB075204FB2E
:1008D0000757D168884297BFD168C2F80CC0091A7F
:1008E000D1607F7EFFB2062FEFD143B9FFF758FFEB
:1008F000C5F894000320BDE8F04101F0E1BA012BF6
:1009000002D8F278012A26D0013B9CB2D8F80030F8
:10091000DA685207FCD5D968C9B261F49061D96030
:10092000114B4FF40022DA60032001F0D9FA0C4B8E
:100930005A69120C120422435A61FFF731FF73689F
:10094000C5F894001A68936843F480639360AFF32A
:100950000080BDE8F0811446D8E700BFA401002064
:10096000002800409C0000200008005870B50D6869
:100970003E4E3F4CCA236B6253236B62B368616087
:1009800043F02003B360B36803F00703C3F104032B
:10099000D9B2E17032694FF4FE0393FAA3F3B3FACC
:1009A00083F302F4FE02DA400132D2B2A27033695C
:1009B000C3F30E0301332380013B5343A3F5A0731C
:1009C000CB404FF6FE72934288BF4FF6FF73294A21
:1009D00098BF9BB22381136843F400231360D2F8BD
:1009E000803043F40023C2F88030002837D1224BF6
:1009F000012183F898104FF0FF31C3F894100621BD
:100A0000187483F8280083F8400083F8580083F8AE
:100A1000700083F888001970AB6823F48063AB60C2
:100A2000EB68DBB263F49063EB604FF40023D360B8
:100A3000032001F055FA63681A68936843F4804311
:100A4000936063681B68FF2203215A6208460022F4
:100A500001F0CAF90320BDE8704001F0F9B9EB6874
:100A60005B05EED5032001F02BFAEAE700280040F1
:100A7000A4010020000800589C0000202DE9F04748
:100A8000EFF3108772B6DFF8449000254FF0180A94
:100A90000AFB05945FFA85FE94F810C00CF0FF067F
:100AA000BCF1000F0BD10125257487F3108860611C
:100AB00062743046636081F800E0BDE8F08701357C
:100AC000062DE5D187F310880120F6E79C00002071
:100AD0002DE9F0418046EFF3108572B6234C244E89
:100AE000032001F0C3F967683B68CA225A625322A7
:100AF0005A62182303FB08631B7C022B24D10021BC
:100B00004046FFF75BFE3378DBB2062B27D1194B4B
:100B10009A683B6812F4806F03D0DA6812F0040F11
:100B2000FAE79A6822F480629A60DA685207FCD584
:100B3000DA68D2B262F49062DA600F4B4FF40022AE
:100B4000DA60032001F0CCF963681B68FF225A6267
:100B5000032001F07DF985F31088BDE8F0817278FB
:100B60009A42F1D0FFF77CFEEEE700BFA40100201F
:100B70009C00002000280040000800582DE9F843A0
:100B80004B4C182303FB004305461B7C022B0F46EE
:100B900001D1FFF79DFFEFF3108872B6032001F03B
:100BA00065F9444A53681B68CA211826596206FB36
:100BB000054953215962022389F81030C9F80C7095
:100BC000C9F808702378DBB2062B17461BD12278B0
:100BD000D2B26270257089F819304FF0FF33C4F833
:100BE00094300020237862789A425AD0FFF738FE7A
:100BF0007B681B68FF225A62032001F029F988F301
:100C00001088BDE8F883FFF70BFED9F80C300344D9
:100C1000C9F80C30D9F80C10237806FB0343DB68C5
:100C2000994223D32378DBB206FB0342527ED2B231
:100C3000062A04D006FB0242D268914212D2182141
:100C400001FB0342527ED2B2062A1CBF01FB0241C5
:100C50000D76182101FB05467276337601FB0343BE
:100C60005D76BFE706FB03435B7EDCE722782378F3
:100C7000D2B29A4206FB02F30FD02344197EC9B2C6
:100C800006FB0146757689F8192089F818101D763B
:100C90002378DBB263702570A4E789F81920234418
:100CA000F5E7182303FB0544E368181AE0609FE7A3
:100CB0009C000020A4010020104700002DE9F84FFF
:100CC000EFF3108772B62A4E73681B684FF0CA0B99
:100CD0004FF05308C3F824B0C3F824809A6822F474
:100CE00080629A60234A14781825E4B205FB042533
:100CF000297C02292FD1D5F804A0D5F8149092F8B8
:100D000098301BB3697CC9B2012919D12046FFF77D
:100D100055FD87F31088A9682046FFF72FFF7368F9
:100D20001B685246C3F824B02146C3F824804846C5
:100D3000FFF7C2FF73681B68FF225A62BDE8F88F95
:100D400087F310882046FFF7C3FEE8E7FFF788FD2A
:100D500087F31088EEE7DA685207FCD5DA68D2B27A
:100D600062F49062DA60044B4FF40022DA60EFE73D
:100D7000A40100209C0000200008005808B508B11C
:100D8000002008BD064803600648074B036002F0D8
:100D90004FFB0228F5D00328F3D00128F0D1F0E76B
:100DA0000413002088140020003801400268044B1E
:100DB0009A4203D1034B1B6803B11847704700BF29
:100DC00000380140041300204FF0B04382B09A6C09
:100DD00002439A649B6C18400190019B02B07047DB
:100DE0004FF0B04382B0DA6C0243DA64DB6C184037
:100DF0000190019B02B07047F0B5AFB048220021CE
:100E000008A804F04AFB1C22002101A804F045FBBD
:100E1000002150221AA804F040FB01F067FB4FF0BC
:100E2000B0420024D2F8903023F01803C2F890307A
:100E3000D2F8003423F4C06343F40073C2F80034E2
:100E4000D2F80034139403F4C06300930722009B8C
:100E50004FF48033CDE9082301274FF480764023F7
:100E600008A80C930225CDE90A7601F0EBFB6F236D
:100E7000394601A8CDE90135CDE90344CDE9054462
:100E8000079401F0B7FE43F60B031A934FF4401397
:100E900023934FF48043CDE92B351AA81023CDE9D5
:100EA00020442A962D9302F046F82FB0F0BD0000A2
:100EB00038B5114A114C4FF4E1330025C4E9002341
:100EC0000C23C4E9053520464FF40043C4E9073537
:100ED000C4E902552561C4E9095503F041F92946E1
:100EE000204603F0C1F92946204603F0E1F92046E7
:100EF000BDE8384003F09DB9003801408814002057
:100F00004FF0B04407B500F019FFD4F894305D01FC
:100F100013D5D4F89430D8000FD401F0E7FA01F0DB
:100F2000E5FAD4F8903043F48033C4F89030D4F824
:100F3000903023F48033C4F890304FF0B0443F2217
:100F4000236D43F480132365236D03F48013019311
:100F5000019B4E4B9A609A615A6842F47C125A6027
:100F60005A6942F47C125A615A6842F03F025A6050
:100F70005A6942F03F025A61002003F0F7FC58B171
:100F8000434B8279C4F89C30D4F89C3023F47C53D2
:100F900043EA0223C4F89C30FFF72EFF3D4B3E4D41
:100FA000D3F880200024C3F88040D3F8902002F0CA
:100FB0005002C3F890200420FFF712FF0120FFF732
:100FC0000FFF0220FFF70CFF0420FFF7FDFE0120BA
:100FD000FFF7FAFE0220FFF7F7FE22460F210E2050
:100FE00000F002FF0E2000F033FF22460F213A20CE
:100FF00000F0FAFE3A2000F02BFF28480F2247F6B7
:10100000FF73C0E90223C0E900540461C0E906444B
:10101000446102F085F9CA236B6253236B62AB68AB
:101020001F4923F00703AB60FF236B621D4D1E4B6E
:10103000AC6001262846C5E90013C5E90364C5E98B
:101040000544C5E9074401F0B4F92146284601F0FA
:1010500001FA2146284601F023FAFFF729FF30461E
:1010600000F046FDFFF73CFB104B114C40F23952AB
:101070001A80104B4FF4FA621A804FF0FF3004F0E0
:1010800051F9236801332360F7E700BF000C0058D3
:10109000FECAFECA000800580028004014150020AF
:1010A000005C004050130020BB7C7000B4010020A5
:1010B000B80100200400002070B5044600F060FE76
:1010C000631C064602D000F067FE0444064D04E0AF
:1010D0002B6923F004032B6130BF00F051FE801B0D
:1010E000A042F5D370BD00BF00ED00E070474FF0A7
:1010F000B04382B0DA6C0243DA64DB6C18400190D2
:10110000019B02B070474FF0B04382B01A6D42F4B9
:1011100000221A651B6D03F400230193019B02B0AA
:101120007047000010B5044686B01422002101A8C3
:1011300004F0B3F92268114B9A421CD10420FFF746
:10114000D6FF03221223CDE9012301210023CDE99B
:10115000031304230DEB03010948059301F06EF816
:101160004FF0B0439A6D42F400029A659B6D03F410
:1011700000030093009B06B010BD00BF005C004060
:1011800000080048F0B514228BB0064600210DEB94
:10119000020004F082F93368534A934258D14FF069
:1011A000B0430120DA6D42F00102DA65DB6D03F035
:1011B00001030093009B0227FFF799FF0C230025F2
:1011C0000824CDE9053705A903234FF09040CDE968
:1011D0000753099401F032F840234FF0904005A9DD
:1011E000CDE905370994CDE90755404C01F026F8C3
:1011F0003F4825621123C4E900031023C4E90235E6
:1012000020468023C4E90435C4E9065500F0BAFE3F
:1012100008B1FFF76BFF4FF08853CDE9013501A905
:10122000012332488DF80C508DF80D50049300F0D6
:10123000DDFF08B1FFF75AFF002225207467114631
:10124000A66200F0D1FD252000F002FE0BB0F0BD3B
:10125000284A9342FAD14FF0B04301201A6E42F46B
:1012600080421A661B6E03F480430193019BFFF7D3
:101270003EFF0220FFF73BFF00254FF400630724E9
:10128000022705A94FF09040CDE905370994CDE933
:10129000075500F0D3FFC023CDE905370122032312
:1012A00005A915480994CDE90723144C00F0C6FFA1
:1012B000134925620F23C4E900131023C4E9023542
:1012C00020468023C4E90435C4E9065500F05AFEDF
:1012D00008B1FFF70BFF0022242074671146A662B5
:1012E00000F082FD2420AFE7008000403815002088
:1012F0004400024000380140000400482814002047
:10130000440402400268154B9A4213B5044622D1A8
:1013100001F0ECF801F0EAF84FF0B0432046D3F8C2
:10132000902022F4407242F48072C3F89020D3F8E7
:10133000902042F40042C3F890209A6D42F48062FB
:101340009A659B6D03F480630193019B02B0BDE835
:10135000104002F041B802B010BD00BF00280040AC
:101360007047FEE7FEE7FEE7FEE77047704770470D
:1013700000F0FABC014800F0EEBE00BF38150020B6
:10138000014802F0EDB800BF88140020014802F0C7
:10139000E7B800BF9C130020014800F0DCBE00BF8E
:1013A0002814002070477047FFF788BC00F00CBB82
:1013B00000F06ABB4FF00053074A1A60BFF34F8F2B
:1013C0000649074BCA6802F4E0621343CB60BFF3DF
:1013D0004F8F00BFFDE700BF0106010000ED00E0F8
:1013E0000400FA0510B504464068083003F0D2FD49
:1013F00010B10123237010BD2070FCE710B101284B
:1014000003D07047032003F065BF032003F070BFD3
:1014100070B54C4B92B006AA03F128061546186821
:101420005968144603C40833B3422246F7D11868FA
:101430001B792371444B206004A904934348444B17
:10144000059303F0AFF90121022003F0EDFE414CBA
:10145000414A0021022003F019FF2846002503F02D
:1014600095FAADF8085003F0EFF823685A1C60D0E5
:101470003A4A11683A4A180A13701B0C9370D170DB
:101480000B0A090C5070137151710621002003F0F2
:1014900089F84EF66E5305932368049304AA062137
:1014A0002E2003F07FF82F4A1021182003F07AF83D
:1014B0002D4A1021082003F075F81821012003F0AF
:1014C0009DF803F021F80DF10E03019303AB009397
:1014D00007220DF10A030021012002F087FF234BB0
:1014E0000093BDF80C10BDF80A000623002203F09B
:1014F00029F810B11E4804F035F802AB0093BDF88E
:101500000E10BDF80A000223002203F01BF810B1F0
:10151000184804F027F803F031FD174A0021012094
:1015200003F0B4FE154804F01DF800F0C7F812B03F
:1015300070BD284603F01AFA114A002818BF024667
:10154000A3E700BFC55E000828000320E5130008DC
:10155000FD1300088075FF1FF14700088475FF1F09
:10156000AE010020F25E0008025F00087060000813
:1015700077600008A6600008B5130008D460000872
:10158000BF5E0008012070470021022003F08EBEDC
:10159000012003F0B9BE012003F030BFF0B5414C8B
:1015A0002378012B91B027466FD102F0A5FE0446A7
:1015B00000B1FEE73C4B3D4A0B9220228DF83020D3
:1015C0009A788DF831209A888DF83320110ADA88BC
:1015D0008DF832108DF83520110A9A681D888DF823
:1015E0003410DB688DF83920110E8DF83610110C8F
:1015F0008DF83710110A1A0E8DF83A201A0C8DF852
:101600003B208DF83D301A0A294B8DF83C20186894
:1016100033F8042F8DF838109B780A9021462D015D
:101620000A26204695FBF6F5ADB2ADF824208DF8DC
:10163000263003F027F8CDE90544CDE90344CDE990
:101640000144009423462A462946032002F072FEF4
:1016500088B9304602F036FF68B90BA9122002F0B3
:1016600007FF40B90AA9042002F002FF18B909A92E
:10167000032002F0FDFE00233B7040F601010D4BFC
:101680001878FFF77BFA11B0F0BD02F035FE00B11B
:10169000FEE7094800F0BCF80123237045F20A0177
:1016A000EDE700BF981500209C1500201116AAFE3A
:1016B000125F0008AC150020B01500202DE9F04F96
:1016C000DFF84491DFF84481D9F80000D9F804101C
:1016D000B9F80820404E414C414D95B00EAB03C3C4
:1016E000019258F8070F99F80A200292019A1A807D
:1016F000D8F80410029A9A7008AB03C3B8F808200F
:101700001A804FF48073ADF81430364B0392336077
:101710004FF00A020EAB73603272334B334A3449D6
:1017200000274FF47A7AC4E901234FF0EA0B08ABA3
:10173000304AE2600497A4F800A0A770A5F800A0C2
:1017400085F802B06B6004ABAB603A462A4B384672
:10175000FFF794F9D9F80000D9F80410069711ABF7
:1017600003C30199198002999970D8F80000D8F83C
:101770000410A4F800A00BAB03C303991980194B04
:10178000336011AB73604FF00A0333721B4BA770C9
:101790001B88A3801A4BA5F800A01A885B68A36079
:1017A0000BAB4FF48071E2806B60124AADF81C10F5
:1017B00006AB3046E260AB6085F802B000F028F876
:1017C000104B01221A700A4B45F20A011878FFF7F4
:1017D000D5F915B0BDE8F08FB01500209C1500209C
:1017E000BC150020E803EA02C0C62D00B80B39057D
:1017F000AC15002080841E009D1500080400002008
:10180000B401002098150020F3600008125F000862
:10181000F0B5037A058891B006338DF82830162389
:101820008DF82930AA238DF82A30FE238DF82B302D
:1018300010238DF82C3083788DF82D30C3788DF8F7
:101840002E30324B0646186833F8042F09900024D6
:1018500021462D010A278DF82F4095FBF7F58DF8CD
:101860003040ADB28DF831408DF832408DF83340C4
:101870008DF834408DF835408DF836408DF837407E
:101880008DF838408DF839408DF83A408DF83B405E
:101890008DF83C408DF83D408DF83E408DF83F403E
:1018A00020469B788DF82230ADF8202002F0EAFE29
:1018B000CDE90544CDE90344CDE901440094234634
:1018C0002A462946032002F035FDA8B9384602F021
:1018D000F9FD88B9327AC3B29A420FD80AA9182002
:1018E00002F0C6FD40B909A9042002F0C1FD18B9F3
:1018F00008A9032002F0BCFD11B0F0BD7368195CAB
:101900000AAB03440130D971E5E700BF235F00084B
:10191000094BD3F8D42042F40072C3F8D4201A6AD9
:1019200042F400721A6240BF20BF044AD36843F4F5
:101930000043D360704700BF0008005800040058FF
:101940004FF0B04307B51A6D42F480121A651B6D53
:1019500003F480130193019B084B1A6842F00102C3
:101960001A601A6842F480321A602C2000F070FA73
:101970002D2003B05DF804EB00F06ABA000C0058AB
:10198000024A536823F0010353607047000C00586B
:10199000024B4FF480329A60704700BF000C005831
:1019A000024A536823F0020353607047000C00584A
:1019B000044B4FF400329A605A6822F400325A60A5
:1019C000704700BF000C00581E4BDA6812F0020F7F
:1019D00010B51A4609D15968890306D45A6842F4E9
:1019E00000325A6003F0A6FB10BDD3689B0707D4F2
:1019F00053689C0304D4536843F400335360F1E705
:101A0000104CE36813F0080F23460DD162681003F1
:101A10000AD4636843F4002363600B4B1B68984748
:101A20004FF40023A360DFE7DA689106DCD45A683C
:101A30009202D9D45A6842F400125A6003F04EFB65
:101A4000D2E700BF000C0058BC01002010B5084CC4
:101A5000E3681B0706D5074B1860636823F400236F
:101A6000636010BD80474FF40023A360F9E700BF17
:101A7000000C0058BC010020024A536823F0080300
:101A800053607047000C005838B5124CE36913F0EE
:101A9000020F254607D063689B0704D403F054FB6C
:101AA0000223A36009E0EB69D80707D56B68D90763
:101AB00004D403F0FDFA0123AB6038BD054CE369A3
:101AC0001A07FAD563681B07F7D403F093FB0823C2
:101AD000E7E700BF000C00584FF0B04382B0DA6C6B
:101AE0000243DA64DB6C18400190019B02B070473E
:101AF000F0B587B004461422002101A803F0CDFC04
:101B00000220FFF7E9FF0C4B0C4D33F8146055F839
:101B10002400019600270123CDE9023701A9022301
:101B2000049300F08BFB3A46314655F8240000F050
:101B30003BFC07B0F0BD00BF2A5F00080800002092
:101B4000044B33F81010044B012253F8200000F02E
:101B50002BBC00BF2A5F00080800002070B586B0CB
:101B600004460E461422002101A803F096FCCCB9CD
:101B70000420FFF7B1FFD6B91B4B03EB440301254B
:101B8000DB88CDE901360223CDE90353174B03EB84
:101B9000840401A9E06800F051FB2846FFF78CFAA5
:101BA00006B070BD631E012BE5D80820E1E7012EC9
:101BB000F6D10D4D039605EB440301A9DB88019393
:101BC0000B4B0293094B03EB84032C44D86800F0C1
:101BD00035FB94F90C40002220460F2100F004F957
:101BE000204600F035F9DBE72A5F000808000020F6
:101BF00000002110174B00219960D3F8882042F48F
:101C00007002C3F888204FF0B0436FF4827C1A68EA
:101C100042F001021A604FF4E0229A601868A2F1C3
:101C2000A262624402401A60D3F8942022F00502B6
:101C3000C3F89420D3F8982022F00102C3F898202A
:101C4000054ADA601A611A6822F480221A609961E2
:101C5000704700BF00ED00E00010042230B54FF0E7
:101C6000B04421492368A068204AC3F3031300F05D
:101C70000C00082851F8235012D00C2812D0042848
:101C800030D11B4B13604FF0B0439B68C3F3031379
:101C900001EB83011368096CB3FBF1F3136030BDF2
:101CA000144BEFE7E068E36800F00300C3F30213AE
:101CB000022803F101030ED10D48B0FBF3F34FF0FE
:101CC000B040C468C068C4F30624400F63430130C9
:101CD000B3FBF0F3D6E7032801D10648EDE7B5FBE7
:101CE000F3F3ECE71560CEE73C5F0008200000202E
:101CF0000024F4000048E80170B50F4D2B7806462B
:101D00000BB9012070BD01F0B7F82A784FF47A734F
:101D1000B3FBF2F3B0FBF3F000F0BCF8044600288C
:101D2000EFD10F2EEDD8024631464FF0FF3000F0D4
:101D30005BF86E602046E5E724000020094A13683E
:101D400043F4807310B50320136000F03BF80020CB
:101D5000FFF7D2FF044618B9FFF7D5F9204610BDAA
:101D60000124FBE700400058034A044B11681B782C
:101D70000B441360704700BFC815002024000020EA
:101D8000014B1868704700BFC8150020014B586808
:101D9000704700BF24000020014B1878704700BF37
:101DA00024000020024A536843F001035360704747
:101DB000002004E0024A536843F002035360704776
:101DC000002004E0074AD36823F4E0631B041B0CE3
:101DD00043F0BF63000243F4003300F4E0600343C8
:101DE000D360704700ED00E0174B70B5DC68C4F3BA
:101DF0000224C4F10705042D04F1040328BF0425BF
:101E00004FF0FF36062B06FA05F38CBF033C002487
:101E100021EA0303A34006FA04F422EA040400289A
:101E200043EA0403A8BF00F160404FEA0313BCBFBC
:101E300000F00F00054ADBB2AABF00F56140135461
:101E400080F8003370BD00BF00ED00E014ED00E04D
:101E5000002808DB4209012300F01F0003FA00F00C
:101E6000014B43F82200704700E100E000280DDB41
:101E70004309012200F01F0002FA00F02033044A57
:101E800042F82300BFF34F8FBFF36F8F704700BF3F
:101E900000E100E00138B0F1807F0AD2064B074A2A
:101EA0005860F02182F823100020072298601A6001
:101EB00070470120704700BF10E000E000ED00E037
:101EC000002809DB4309012200F01F0002FA00F09C
:101ED0004033024A42F82300704700BF00E100E0AF
:101EE000002809DB4309012200F01F0002FA00F07C
:101EF0006033024A42F82300704700BF00E100E06F
:101F000070B5D0E913456560446D14B1D0E916454C
:101F10006560D0E9106404F01C050124AC407460D5
:101F2000046863608368102B0BBFA260A160E1604E
:101F3000E26070BD10490368426C8B4222F00302DC
:101F400095BF02F180420D4902F50232891898BF0F
:101F50008264DBB20A4AC264A3F108034FF01402A0
:101F6000B3FBF2F34FF0010203F01C0302FA03F398
:101F700088BF816403657047070402401C08024063
:101F80008008024010B5044600285DD001682F4B40
:101F900099424FF014004AD82D4A0A44B2FBF0F29D
:101FA00092006264A3F207432364022384F825307D
:101FB000D4E90230034320690A680343606903439C
:101FC000A0690343E0690343206A22F4FF4222F040
:101FD0007002034313430B602046FFF7ABFFA36877
:101FE000A16CB3F5804F04BF002363606268D3B275
:101FF0000B60D4E91310013A032A48601FD8154A30
:102000001548A0651A44013B9200012103F0030327
:1020100001FA03F300216265E3651160436000206B
:102020000123E06384F8240084F8253010BD0B4BB5
:102030000B44B3FBF0F39B006364094BB4E700234C
:10204000C4E91533E365EAE70120EFE7070402403E
:10205000F8FFFDBF3F82001040090240F8FBFDBFC2
:102060000004024070B590F82450012D044639D088
:10207000012580F8245090F82550012D4FF00006DE
:102080004FF002052CD180F82550C66306683568EC
:1020900025F001053560FFF733FF026B0368BAB125
:1020A0001A6842F00E021A60A26C1168C90342BF9E
:1020B000116841F480711160626D1AB1116841F4C8
:1020C000807111601A6842F001021A60002070BD30
:1020D0001A6822F004021A601A6842F00A02E2E763
:1020E00080F824600220F2E790F82530022B10B52A
:1020F00003D00423C363012010BD03681A6822F0D3
:102100000E021A601A6822F001021A60826C1368CB
:1021100023F480731360D0E9101303F01C02012331
:1021200093404B60D0E913325A60436D33B11A6863
:1021300022F480721A60D0E916325A60012380F8C6
:102140002530836B002480F8244013B19847204643
:10215000D2E71846D0E7016C426C036870B402F015
:102160001C020E681D680424944034420ED015F001
:10217000040F0BD01A6892065EBF1A6822F00402A0
:102180001A60036B4C6073B370BC18470224944010
:10219000344212D015F0020F0FD01A68950606D4FB
:1021A0001A6822F00A021A60012380F82530002301
:1021B0004C6080F82430C36AE5E708249440344238
:1021C00011D02C070FD51C6824F00E041C600123CD
:1021D00003FA02F24A60C36380F82530002380F8D6
:1021E0002430436BCFE770BC7047000090F8253077
:1021F000012B70B51BD190F82430012B19D0CB687E
:10220000846C5A1ED1E90036334343EAC2430A7A4A
:10221000256843EA02434A7A43EA4223064A2A40AF
:1022200013432360002380F82430184670BD01203A
:10223000FCE70220FAE700BFFFFD00E02DE9F04FC8
:10224000574AD1F800E000234FF00F093EFA03F49B
:1022500001D1BDE8F08F012404FA03F818EA0E0555
:1022600000F094804C6824F0100A4FEA430C0326D7
:102270000AF1FF3706FA0CF6012F6FEA060611D8AD
:10228000876807EA060BCF6807FA0CF747EA0B07DF
:102290008760476827EA0808C4F300179F4047EAA9
:1022A00008074760C76807EA06088F6807FA0CF74F
:1022B00047EA0807BAF1020FC76014D14FEAD30802
:1022C00000EB880803F0070AD8F820704FEA8A0A62
:1022D00009FA0AFB27EA0B0B0F6907FA0AF747EA24
:1022E0000B07C8F8207007683E4004F0030707FAA0
:1022F0000CFC4CEA06060660E60047D523F003070F
:1023000007F1804707F5803703F0030CBE684FEAFA
:102310008C0C09FA0CF8B0F1904F26EA080837D077
:10232000204EB04236D006F58066B04234D006F575
:102330008066B04232D006F58066B04214BF0726F0
:10234000042606FA0CF646EA0806BE60D2F880605B
:10235000EF4314F4803F0CBF3E402E43C2F8806030
:10236000D2F8846014F4003F0CBF3E402E43C2F804
:102370008460166814F4801F0CBF3E402E43166024
:102380005668A40254BF3E402E43566001335DE7B9
:102390000026D6E70126D4E70226D2E70326D0E7B7
:1023A00000080058000400480AB18161704781624A
:1023B000704710B5044600284AD090F8413003F029
:1023C000FF021BB980F84020FEF7ACFE242384F8FE
:1023D000413023681A6822F001021A60626822F014
:1023E00070621A619A6822F400429A60D4E902216C
:1023F000012924D142F400429A605A6842F00072E6
:1024000042F400425A60DA6822F40042DA60D4E909
:1024100004210A43A16942EA0122DA60D4E90721D2
:102420000A431A601A6842F001021A600020202351
:10243000606484F84130206384F8420010BD42F4A7
:10244000044202299A6004BF4FF400625A60D4E744
:102450000120F3E790F84120D2B2202A10B51DD117
:1024600090F84030012B19D0242380F841300368C4
:102470001C6824F001041C601C6824F480541C6057
:102480001C6821431960196841F00101196000239B
:1024900080F8412080F84030184610BD0220FCE74B
:1024A00010B590F84140E4B2202C1CD190F8403097
:1024B000012B18D0242380F8413003681A6822F0D9
:1024C00001021A601A6822F4706242EA012119605E
:1024D0001A6842F001021A60002380F8414080F837
:1024E0004030184610BD0220FCE70000024A136885
:1024F00043F480731360704700040058024B18685F
:1025000000F4C060704700BF000400584FF0B043B3
:102510001868C0F3404070474FF0B0431868C0F3EC
:10252000802070474FF0B043D3F89400C0F34000D0
:1025300070474FF0B0431868C0F3400070474FF049
:10254000B042136823F0F0031843106070474FF057
:10255000B043186800F0F000B02828BFB0207047E2
:102560004FF0B042536823F47F4343EA00205060A9
:1025700070470000B0282E4B2E4A98BF0009F0B5D6
:102580008CBFDD6A53F820502B4C4FF0B04389B01C
:10259000D3F8083103F00F036E4652F82330B5FB31
:1025A000F3F5264BB5FBF3F5FFF7A8FF074694E8D4
:1025B0000F00103486E80F0094E80F00B7F5007F95
:1025C00008AC04E90F0017D0062D24D90C2D24D90E
:1025D000102D24D900241A4D2B6823F00703234320
:1025E0002B60FFF7CDFB06462B6803F007039C42E8
:1025F00017D1002009B0F0BD002356F823209542E2
:1026000005D808AA02EB830353F8104CE3E7013323
:10261000042BF2D1DEE70023F3E70123F1E70223E5
:10262000EFE7FFF7ADFB801B0228DDD90320E1E7D0
:102630003C5F00087C5F00083C60000840420F00DF
:1026400000400058F8B5044608B9012081E003684D
:102650009F062AD54FF0B0429368D26813F00C035E
:1026600005D00C2B5AD102F00303012B56D1FFF7F2
:1026700060FF10B1E369002BE7D0626AFFF767FFE4
:102680008242606A3FD9FFF775FF0028DDD1606A9A
:10269000FFF755FF206AFFF763FFFFF7DFFABA4B3A
:1026A0001868FFF729FB0028CFD12368DE0762D422
:1026B00023689D0700F1AD80236813F0180F40F0E8
:1026C000EE802368580700F188812368580640F19E
:1026D000ED81A36A4FF0B045002B00F0D481D5F80E
:1026E000983043F00103C5F89830FFF749FB0646E0
:1026F000D5F89830990700F1D981FFF741FB801B8D
:102700000228F5D924E0FFF71AFF206AFFF728FF17
:10271000606AFFF72FFF0028BFD096E7E2694FF00D
:10272000B043BAB11A6842F001021A60FFF728FB01
:102730000546FFF7FEFE30B1606AFFF700FF206A32
:10274000FFF70EFFB1E7FFF71BFB401B0228F0D994
:102750000320F8BD1A6822F001021A60FFF710FB8F
:102760000546FFF7E6FE00289FD0FFF709FB401B58
:102770000228F6D9ECE74FF0B0429368D26803F034
:102780000C03082B05D00C2B0BD102F00303032BF9
:1027900007D1FFF7BBFE00288AD06368002B87D1E2
:1027A00053E76268B2F5803F4FF0B04311D11A6829
:1027B00042F480321A60FFF7E3FA0546FFF7A6FEFF
:1027C00000287FF475AFFFF7DBFA401B6428F5D9CA
:1027D000BEE7B2F5A02F04D11A6842F480221A6035
:1027E000E5E7196821F480311960196821F4802126
:1027F0001960002ADFD1FFF7C3FA0546FFF786FE0E
:1028000000283FF455AFFFF7BBFA401B6428F5D909
:102810009EE74FF0B0429368D26803F00C03042B9C
:1028200005D00C2B14D102F00303022B10D1FFF7BB
:1028300073FE18B1E368002B3FF407AF4FF0B042CE
:102840002169536823F0FE4343EA0163536033E791
:10285000E2684FF0B04382B11A6842F480721A60A5
:10286000FFF78EFA0546FFF757FE0028E6D1FFF77F
:1028700087FA401B0228F6D96AE71A6822F48072A8
:102880001A60FFF77DFA0546FFF746FE00283FF481
:1028900013AFFFF775FA401B0228F5D958E76269B4
:1028A0004FF0B045002A71D0D90647D5FFF73AFE60
:1028B00058B34FF0B045D5F8943043F00403C5F851
:1028C0009430FFF75DFA0646D5F894301A072FD5F5
:1028D000D5F89430A26923F4706343EA0223C5F863
:1028E0009430D5F8943023F00103C5F89430FFF705
:1028F00047FA0546FFF716FE00283FF4E2AEFFF761
:102900003FFA401B0228F5D922E7D5F8943043F06E
:102910000103C5F89430FFF733FA0546FFF702FECE
:102920000028C6D1FFF72CFA401B0228F6D90FE782
:10293000FFF726FA801B0328C6D909E7D5F894309B
:1029400043F00103C5F89430FFF71AFA0646FFF783
:10295000E9FD98B14FF0B0431D46D3F8942022F022
:102960000402C3F89420D5F894301B077FF5A9AE74
:10297000FFF706FA801B0328F5D9E9E6FFF700FA0E
:10298000801B0228E3D9E3E628000020D5F8943024
:1029900023F00403C5F89430FFF7F2F90646D5F8A2
:1029A00094301F0713D4D5F8943023F00103C5F8F1
:1029B0009430FFF7E5F90546FFF7B4FD00283FF432
:1029C00080AEFFF7DDF9401B0228F5D9C0E6FFF71E
:1029D000D7F9801B0328E2D9BAE6844D2B68D805C5
:1029E0001CD5A368012B4FF0B04525D1D5F8903008
:1029F00043F00103C5F89030FFF7C2F94FF0B0473C
:102A0000064641F28835D7F890309A073FF55DAE1B
:102A1000FFF7B6F9801BA842F5D999E6FFF766FDE6
:102A2000FFF7AEF906462B68D905DAD4FFF7A8F907
:102A3000801B0228F7D98BE6052B06D1D5F89030FC
:102A400043F00403C5F89030D0E7D5F8902022F089
:102A50000102C5F89020D5F8902022F00402C5F8B4
:102A60009020002BC8D1FFF78BF941F2883607463A
:102A7000D5F890309B077FF528AEFFF781F9C01B92
:102A8000B042F5D964E6D5F8983023F00103C5F8D3
:102A90009830FFF775F90646D5F898309A0705D5AE
:102AA000FFF76EF9801B0228F6D951E6E16A09B9F1
:102AB00000204EE64FF0B0450229AA68EB6802F00C
:102AC0000C0274D1206B03F00301814218D1606BBA
:102AD00003F07001814213D1A06BC3F30621814240
:102AE0000ED1E06B03F47811814209D1206C03F020
:102AF0006061814204D1616C03F060438B423FD03E
:102B00000C2A3FF4A2AD4FF0B0452B685B013FF5B6
:102B10009CAD2B6823F080732B60FFF731F90646DC
:102B20002B689F0126D4D4E90C32E9681343304A5C
:102B30000A401343E26B1343226C1343626C13434A
:102B4000A26B43EA0223EB602B6843F080732B6097
:102B5000EB6843F08053EB60FFF712F94FF0B0449D
:102B6000054623689801A3D4FFF70AF9401B022801
:102B7000F7D9EDE5FFF704F9801B0228D0D9E7E586
:102B80002B68990194D42B6843F080732B60EB6819
:102B900043F08053EB60FFF7F3F804462B689A018B
:102BA00086D4FFF7EDF8001B0228F7D9D0E50C2AF0
:102BB0003FF44BAD2B6823F080732B60EB6823F060
:102BC0000303EB60EB6823F0885323F48033EB605E
:102BD000FFF7D6F804462B689B017FF569AFFFF736
:102BE000CFF8001B0228F6D9B2E500BF0004005858
:102BF0008C80C1112DE9F0410D46044610B9012029
:102C0000BDE8F081744E336803F007038B4216D39E
:102C10002368980727D54FF0B046A268B36823F021
:102C2000F0031343B360FFF7ABF80746B368D9036B
:102C300019D4FFF7A5F8C01B0228F7D911E03368B3
:102C400023F007030B433360FFF79AF80746336816
:102C500003F00703AB42DBD0FFF792F8C01B02285A
:102C6000F5D90320CCE723689A0616D54FF0B04675
:102C70006269D6F8083123F0F0031343C6F808312F
:102C8000FFF77EF80746D6F808319B0305D4FFF717
:102C900077F8C01B0228F6D9E3E72368580617D552
:102CA0004FF0B046A269D6F8083123F00F0343EA8B
:102CB0001213C6F80831FFF763F80746D6F8083153
:102CC000D90305D4FFF75CF8C01B0228F6D9C8E782
:102CD00023685A0713D54FF0B046E268B36823F46F
:102CE000E0631343B360FFF74BF80746B3689B03F9
:102CF00005D4FFF745F8C01B0228F7D9B1E72368D0
:102D0000180714D54FF0B0462269B36823F4605316
:102D100043EAC203B360FFF733F80746B3685903C9
:102D200005D4FFF72DF8C01B0228F7D999E72368CF
:102D3000DA070DD4284C236803F00703AB4237D8D9
:102D4000FEF78CFFFFF722F8BDE8F041FEF7D4BF95
:102D50006368022B03D1FFF7D9FB40B94FE7032B80
:102D60001FD14FF0B0431B689B017FF548AF4FF078
:102D7000B0466268B36823F003031343B360FEF701
:102D8000FFFF41F288380746B368626803F00C031E
:102D9000B3EB820FCED0FEF7F3FFC01B4045F3D953
:102DA0005FE713B9FFF7C5FBD7E7FFF7B5FBD4E73C
:102DB000236823F007032B432360FEF7E1FF064659
:102DC000236803F00703AB42BAD0FEF7D9FF801B9C
:102DD0000228F5D945E700BF004000584FF0B04247
:102DE00008B5936813F00C0307D1FFF7B0FB1F4B36
:102DF000C0F3031053F8200008BD042B33D0082B78
:102E000007D113681A4813F4801F1A4B08BF1846DD
:102E1000F2E7D36803F00303022B22D0032B18D16F
:102E20001368134813F4801F124B18BF03464FF06A
:102E3000B042D068D168D268C0F306205843C1F3CD
:102E400002130133B0FBF3F0530F0133B0FBF3F087
:102E5000D2E7FFF77CFB054BC0F3031053F820309B
:102E6000E5E7034BE3E70248C6E700BF3C5F000825
:102E70000024F4000048E80108B5FFF7AFFF4FF069
:102E8000B043044A9B68C3F3031352F82330B0FBEA
:102E9000F3F008BD7C5F000808B5FFF7EDFF4FF0C9
:102EA000B043054A9B68C3F3022352F8233003F072
:102EB0001F03D84008BD00BF1C60000808B5FFF71D
:102EC000DBFF4FF0B043054A9B68C3F3C22352F8BF
:102ED000233003F01F03D84008BD00BF1C6000086A
:102EE0004FF0B043D3F89000C0F3400070474FF06C
:102EF000B0410209D1F8883002F47F22000123EAB0
:102F0000020300F47F201843C1F8880070474FF097
:102F1000B042136843F08063136070474FF0B042D3
:102F2000136823F08063136070474FF0B043186854
:102F3000C0F3C0607047F8B5056815F04005044659
:102F400043D0036BB3F5800F15D002D8D3B1012560
:102F50003BE0B3F5000F02D0B3F5400FF7D14FF0CF
:102F6000B042216BD2F8883023F440030B43C2F8FF
:102F70008830002529E04FF0B042D36843F4803315
:102F8000D360ECE7FFF7CAFFFEF7FAFE0546FFF74E
:102F9000CCFFA0B94FF0B0426168136923F4FE433F
:102FA00043EA012313611369A16823F478130B43E7
:102FB0001361FFF7ACFFFEF7E3FE0546CDE0FEF739
:102FC000DFFE401B0228E2D9032523681A0515D528
:102FD0004FF0B046236CD6F8907007F44077BB42B0
:102FE0000CD0FFF783FAD6F89030002F40F0C08065
:102FF000226C23F440731343C6F890302368DF0734
:1030000009D54FF0B041A069D1F8882022F0030221
:103010000243C1F888209E0709D54FF0B041E0690E
:10302000D1F8882022F440620243C1F88820D806F3
:103030000CD5A66A4FF0B040310CD0F888200904B6
:1030400022EA010242EA0642C0F8882099060CD51D
:10305000E66A4FF0B040310CD0F88820090422EA2B
:10306000010242EA0642C0F888205A0702D5206AC7
:10307000FFF73DFF23681B0702D5606AFFF737FFA4
:103080002368DF0511D54FF0B042616BD2F888306C
:1030900023F040630B43B1F1006FC2F8883040F079
:1030A0008F80D36843F08073D36023689E051AD560
:1030B000A26BB2F1004F4FF0B04303D032F0804129
:1030C00040F0B680D3F8881021F040411143B2F1AE
:1030D000C05F08BF4FF0B042C3F8881002BFD3688A
:1030E00043F08073D3602368580511D54FF0B04288
:1030F000E16BD2F8883023F040530B43B1F1005F0D
:10310000C2F8883040F0A280D36843F48033D360A3
:103110002268D10409D54FF0B041606CD1F89430E9
:1031200023F440430343C1F8943093040DD54FF08A
:10313000B042E16C536A23F030030B435362536A8D
:10314000A16C23F003030B4353622846F8BDFEF73E
:1031500017FE401B02283FF637AFFFF7E6FE0128B7
:10316000F5D14FF0B042616913690B431361F6E684
:10317000D6F8902042F48032C6F89020D6F89020FD
:1031800022F48032C6F89020226C23F4407313435B
:10319000C6F89030D6F89030DB077FF52FAFFEF7FA
:1031A000EFFD41F288370646FFF79AFE01283FF40B
:1031B00025AFFEF7E5FD801BB842F5D903251DE7D5
:1031C000B1F1806F7FF471AFFFF7A8FEFEF7D8FD75
:1031D0000646FFF7AAFEA0B94FF0B0426168136936
:1031E00023F4FE4343EA012313611369E16823F0EA
:1031F00060630B431361FFF78AFEFEF7C1FD0646CD
:103200000BE0FEF7BDFD801B0228E2D903254CE749
:10321000FEF7B6FD801B0228F8D8FFF786FE0128CE
:10322000F6D14FF0B042616913690B4313613CE77B
:10323000D3F8881021F04041C3F88810D3F88800F3
:1032400022F0805120F04060014340E7B1F1805FFF
:103250007FF45EAFFFF762FEFEF792FD0646FFF7D2
:1032600064FEA0B94FF0B0426168136923F4FE43D5
:1032700043EA012313611369216923F060430B437F
:103280001361FFF744FEFEF77BFD06460BE0FEF7F9
:1032900077FD801B0228E2D9032539E7FEF770FD90
:1032A000801B0228F8D8FFF740FE0128F6D14FF026
:1032B000B042616913690B43136129E7026838B5AD
:1032C000D36823F0A003D3600446FEF759FD0546FA
:1032D0002368DB689B0601D5002038BDFEF750FD52
:1032E000401BB0F57A7FF3D90320F6E738B50368C1
:1032F000DA685206044601D5002038BD4FF0FF328F
:10330000DA60FEF73DFD05462368DB685B06F3D413
:10331000FEF736FD401BB0F57A7FF5D90320ECE7C8
:1033200038B50446D8B190F8213003F0FF021BB93C
:1033300080F82020FDF7E6FF022384F8213023687F
:10334000CA225A6253225A622046FFF7CFFF2368EF
:10335000054630B1FF225A62042384F8213001254A
:1033600038E09A68206922F4E00222F040029A6074
:10337000626899680243A06902430A439A60E2685E
:103380001A611A69A168606942EA01421A61DA6841
:1033900022F08002DA60DA6C22F00302DA64E26979
:1033A000D96C02430A43DA649B689B060CD420461E
:1033B000FFF784FF40B12368FF225A62042384F898
:1033C000213084F82050CAE72368FF225A62012383
:1033D00084F82130284638BD90F82030012B4FF07A
:1033E000020312D080F821300368CA225A625322A5
:1033F0005A629A6842F020029A60FF225A620123C0
:1034000080F82130002380F8203018467047026889
:10341000136823F490731360936823F0805323F0B0
:10342000010393602023C0F884300023C3667047F3
:10343000F8B504461346D4F88070202F3AD161B312
:103440005AB394F87C20012A34D0606FA4F8563027
:10345000012500262122C4F8886084F87C5021656B
:10346000A4F85430C4F88020C8B1DFF84CC02268FA
:10347000C0F82CC0DFF844C0C0F830C0DFF840C04E
:103480002832C0E90DC6FEF7EDFD40B11023C4F8A7
:10349000883084F87C60C4F88070012009E02368DB
:1034A00040221A629A68002042F0800284F87C0070
:1034B0009A60F8BD0220FCE7C5340008F534000826
:1034C0000135000808B50368826A1B6813F0200301
:1034D0000BD1A2F8563013689A6822F080029A60E5
:1034E0001A6842F040021A6008BD1046FDF75EFC03
:1034F000FAE7704708B5806AFFF7FBFF08BD704721
:10350000816A0B68D1F88020D1F8840010B59C68DE
:1035100024060FD5212A0DD10022A1F856201A68C1
:1035200022F0C0021A609A6822F400029A602022F7
:10353000C1F880209B685B0607D5222805D10023AF
:10354000A1F85E300846FFF762FFD1F8883043F0FB
:103550001003C1F888300846FFF7D1FF10BD000006
:103560000268D369116870B540F60F052B42044616
:1035700090680BD19E0640F183808D0601D4C60071
:103580007ED5E36E002B75D020466DE0584E064088
:1035900002D1584D294273D0DD0709D5CD0507D595
:1035A00001251562D4F8885045F00105C4F888500B
:1035B0009D0709D5C50707D502251562D4F888509F
:1035C00045F00405C4F888505D0709D5C50707D53F
:1035D00004251562D4F8885045F00205C4F88850D7
:1035E0001D070AD58D0600D43EB108251562D4F812
:1035F000885045F00805C4F888501E050AD54D01CD
:1036000008D54FF400651562D4F8882042F02002F6
:10361000C4F88820D4F8882062B39E0607D58D06AA
:1036200001D4C00003D5E36E0BB120469847226851
:10363000D4F8885092685106204602D415F0280527
:1036400019D0FFF7E4FE23689A6852060FD59A68EE
:10365000A06F22F040029A6048B1274B8363FEF7C7
:1036600043FD38B1A06F836BBDE87040184720461A
:10367000FFF745FF70BDFFF742FFC4F88850F9E738
:10368000DE0209D5450207D54FF4801320461362A8
:10369000BDE8704000F0CABD1E0605D50D0601D478
:1036A000000201D5236F6DE75E060ED54D060CD5E1
:1036B000136823F0400313602023C4F880300023F4
:1036C00023672046FDF772FBD4E7180206D54A00AF
:1036D00004D52046BDE8704000F0AABDDB01C9D585
:1036E0000029C7DA2046BDE8704000F0A0BD00BF49
:1036F0000100001020010004FD36000808B5806AB2
:103700000023A0F85E30A0F85630FFF7F8FE08BDA1
:103710000368C16982682DE9F048044600691D68A4
:10372000024360690243606E0A430243AC4828408A
:1037300002431A605A68E06822F4405202435A6019
:10374000A84AA06993421CBF226A10439A6822F0DB
:103750006E4222F4306202439A60DA6A606A22F0B2
:103760000F020243DA62A04A93421AD14FF0B043EB
:103770009E4AD3F8883003F00303B1F5004FD35CC1
:1037800003F1FF3340F03483072B00F22E83DFE890
:1037900013F02A0251022C0398022C032C032C0351
:1037A000B102904A934240F0EF834FF0B043D3F818
:1037B000883003F44063B3F5806F00F0AC800AD822
:1037C000C3B3012200234FF00111C4E91A13236788
:1037D0001046BDE8F088B3F5006F65D0B3F5406FD3
:1037E000EFD1002800F0E780012800F0E8800228EF
:1037F00000F0E980032800F0EA80042800F0EB8064
:10380000052800F00B81062800F00C81072800F045
:103810000D81082800F00E81092800F00F810A2888
:1038200000F010810B284FF0080114BF4FF4004046
:10383000802058E0FFF730FB636AFBB1012B1FD0FB
:10384000022B1FD0032B1FD0042B1FD0052B1FD002
:10385000062B1FD0072B1FD0082B1FD0092B1FD0E2
:103860000A2B1FD00B2B14BF01234FF480730021B0
:10387000B0FBF3F0002836D10246A3E70123F6E7B8
:103880000223F4E70423F2E70623F0E70823EEE738
:103890000A23ECE70C23EAE71023E8E72023E6E716
:1038A0004023E4E78023E2E700286BD001286CD0B6
:1038B00002286DD003284FF002016CD004286CD090
:1038C00005286CD006286CD007286CD008286CD04E
:1038D00009286CD00A286CD0454B4FF224420B28A3
:1038E00014BF18461046626802EB420383423FF65B
:1038F00068AFB0EB023F3FF664AF082900F2708179
:10390000DFE811F0A4006E01E0006E011C016E0101
:103910006E016E013501FFF761FA636AE3B1012BB5
:103920001CD0022B1CD0032B1CD0042B1CD0052B2D
:103930001CD0062B1CD0072B1CD0082B1CD0092B0D
:103940001CD00A2B1CD00B2B14BF01234FF4807307
:10395000B0FBF3F004218DE70123F9E70223F7E739
:103960000423F5E70623F3E70823F1E70A23EFE74B
:103970000C23EDE71023EBE72023E9E74023E7E7FB
:103980008023E5E702211A48ADE702211948AAE79A
:1039900001461948A7E71948A5E71948A3E71948B8
:1039A000A1E719489FE719489DE719489BE719487F
:1039B00099E7194897E708214FF4004093E7082159
:1039C0004FF480408FE708214FF400508BE7082127
:1039D00041F2555087E708214FF4805083E700BF3C
:1039E000F369FFCF00800040003801405C600008B0
:1039F0000024F40000127A0000093D00AAB028005B
:103A000080841E00006A18005558140040420F00C0
:103A100020A1070090D0030048E80100082140F6EB
:103A2000CC4060E7082140F6AA205CE708214FF46B
:103A3000006058E701464FF4806054E708214FF4D6
:103A4000007050E708214FF480704CE7FFF724FA2C
:103A5000636A002B00F08980012B72D0022B72D098
:103A6000032B72D0042B72D0052B72D0062B72D090
:103A7000072B72D0082B72D0092B72D00A2B72D070
:103A80000B2B72D14FF4807200230021FCF778FBDE
:103A900065680F0247EA10670602680816EB000B1C
:103AA00047F1000C2A46002358466146FCF768FBA4
:103AB0000022A54BA0F5407199423FF682AE2368E3
:103AC000D8607FE6636A002B36D0012B16D0022B1C
:103AD00016D0032B16D0042B1ED0052B1ED0062B80
:103AE0001ED0072B20D0082B20D0092B20D00A2B4A
:103AF00020D00B2B20D1954E002706E0944EFBE7FB
:103B0000944EF9E78CA7D7E90067550870194FF074
:103B1000000347F10001C9E78F4EEDE78F4EEBE759
:103B200087A7D7E90067F0E78D4EE5E78D4EE3E71D
:103B30008D4EE1E78D4EDFE78D4EDDE7FFF74EF965
:103B400086E70222A0E704229EE706229CE70822DD
:103B50009AE70A2298E70C2296E7102294E720229F
:103B600092E7402290E780228EE701228CE7636A89
:103B70009BB3012B16D0022B17D0032B18D0042B8C
:103B800018D0052B19D0062B19D0072B19D0082BCC
:103B90001AD0092B1BD00A2B1CD00B2B1DD14FF494
:103BA0000046A9E74FF48006A6E74FF40016A3E706
:103BB000704EA1E74FF480169EE76F4E9CE76F4E64
:103BC0009AE74FF4002697E74FF4802694E74FF4E6
:103BD000003691E74FF480368EE74FF400068BE70E
:103BE0000122002065E7FFF769F9616A00296BD0BF
:103BF00001296BD002296BD003296BD004296BD02B
:103C000005296BD006296BD007296BD008296BD00A
:103C100009296BD00A296BD00B2914BF01224FF45C
:103C200080726168B0FBF2F24B0803EB4203B3FB16
:103C3000F1F31FE078B301282FD002282FD00328FA
:103C40002FD004282FD005282FD006282FD00728C2
:103C50002FD008282FD009282FD00A282FD0434B47
:103C6000474A0B2814BF18461046636800EB530000
:103C7000B0FBF3F39BB20022A3F110004FF6EF71FB
:103C800088423FF69EAD23F00F012068C3F3420344
:103C90000B43C36096E53548E7E72C48E5E739482C
:103CA000E3E73948E1E73948DFE73948DDE73948F4
:103CB000DBE73948D9E73948D7E73948D5E7394804
:103CC000D3E7FFF78BF890E70122AAE70222A8E7E3
:103CD0000422A6E70622A4E70822A2E70A22A0E718
:103CE0000C229EE710229CE720229AE7402298E7C8
:103CF000802296E7002857D0012858D0022859D0B2
:103D000003285AD004285BD005285CD006285DD053
:103D100007285ED008285FD0092860D00A2861D023
:103D20000B2814BF4FF480334FF48073606803EBAB
:103D30005003B3FBF0F39DE700AAB0280000000099
:103D40000055581400000000FFFC0F000024F40090
:103D50000000127A0000093D0080841E00006A18ED
:103D60000040420F0020A1070090D0030048E80166
:103D7000000024F40055150000CC0C0000AA0A0035
:103D800048E8010000127A005461510000093D002A
:103D900000D43000AAB0280080841E0040420F00EA
:103DA00020A1070090D003004FF48033BEE74FF40A
:103DB0000043BBE74FF48043B8E742F6AA23B5E7D8
:103DC0004FF40053B2E741F69813AFE741F2545372
:103DD000ACE74FF48053A9E74FF40063A6E74FF434
:103DE0008063A3E74FF40073A0E70122002343E7B9
:103DF000072B00F2CD80DFE803F0042ACB6DCBCB9C
:103E0000CB86FFF75BF8636A002B66D0012B66D088
:103E1000022B66D0032B66D0042B66D0052B66D010
:103E2000062B66D0072B66D0082B66D0092B66D0F0
:103E30000A2B66D00B2B14BF01234FF480736268EA
:103E4000B0FBF3F303EB5203B3FBF2F320E058B300
:103E500001282BD002282BD003282BD004282BD0CC
:103E600005282BD006282BD007282BD008282BD0AC
:103E700009282BD00A282BD0474B4FF224420B287D
:103E800014BF18461046636800EB5300B0FBF3F311
:103E90009BB20022A3F110004FF6EF7188423FF66B
:103EA00090AC2168CB608DE43B48ECE73B48EAE707
:103EB0003B48E8E73B48E6E73B48E4E73B48E2E7C6
:103EC0003B48E0E73B48DEE73B48DCE73B48DAE7D6
:103ED0003B48D8E7FEF782FF95E70123AFE70223CF
:103EE000ADE70423ABE70623A9E70823A7E70A23E6
:103EF000A5E70C23A3E71023A1E720239FE7402396
:103F00009DE780239BE7F0B101281FD0022820D035
:103F1000032821D0042822D0052823D0062824D025
:103F2000072825D0082826D0092827D00A2828D0F5
:103F30000B2814BF4FF400438023606803EB500349
:103F4000B3FBF0F3A4E74FF40043F6E74FF48043EC
:103F5000F3E74FF40053F0E741F25553EDE74FF428
:103F60008053EAE740F6CC43E7E740F6AA23E4E7CC
:103F70004FF40063E1E74FF48063DEE74FF4007332
:103F8000DBE74FF48073D8E7B1F5004F3FF42DAF76
:103F9000012200237EE700BF0024F40000127A0013
:103FA00000093D00AAB0280080841E00006A1800A5
:103FB0005558140040420F0020A1070090D0030084
:103FC00048E80100836ADA0710B506D50168C46ABB
:103FD0004A6822F4003222434A609C0706D50168F1
:103FE000046B4A6822F4803222434A60590706D59E
:103FF0000168446B4A6822F4802222434A601A070F
:1040000006D50168846B4A6822F4004222434A6064
:10401000DC0606D50168C46B8A6822F4805222430C
:104020008A60990606D50168046C8A6822F40052F9
:1040300022438A605A060FD50168446C4A6822F40C
:1040400080122243B4F5801F4A6005D14A68846C0F
:1040500022F4C00222434A601B0606D50268C16CE6
:10406000536823F400230B43536010BD2DE9F04146
:10407000069D04460F46164698462168CA6937EAE7
:1040800002030CBF01220022B24201D000201AE03C
:10409000681CF3D0FDF774FEA0EB0800A84220686E
:1040A000036800D88DB923F4D0730360836823F0CC
:1040B000010383602023C4F88030C4F884300023D7
:1040C00084F87C300320BDE8F0815A07D5D5C36958
:1040D0001B05D2D54FF400630362036823F4D07349
:1040E0000360836823F0010383602023C4F88030D9
:1040F000C4F88430C4F88830E1E773B5044600267C
:10410000C0F88860FDF73CFE23681B681A07054667
:1041100017D423681B685B070AD56FF07E430093B2
:1041200000222B464FF480012046FFF79FFFA0B9E5
:1041300020230020C4F8803084F87C00C4F8843048
:104140000CE06FF07E430093324603464FF40011BB
:104150002046FFF78BFF0028DBD0032002B070BDA4
:1041600010B5044650B3D0F880301BB980F87C30CD
:10417000FDF708F822682423C4F88030136823F080
:10418000010313602046FFF7C3FA012816D0A36A83
:1041900013B12046FFF716FF23685A6822F49042B5
:1041A0005A609A6822F02A029A601A6842F0010264
:1041B00020461A60BDE81040FFF79FBF012010BDE8
:1041C000184A84B040F20713CDE90023164B02933E
:1041D000A3F10323A3F580330393436E23B94FF078
:1041E0000113836604B0704702689368916804AA5B
:1041F00002EB5171C3F3426311F8102C11F8081C43
:10420000D20092FBF1F2A0F86A2004AA134413F83A
:10421000102C13F8083CD20092FBF3F3A0F868309E
:10422000E0E700BF01010103080402047047704782
:10423000704790F87C30012B14D002682423C0F81A
:1042400080301168136823F00103136021F00051DE
:104250000023436611602022C0F8802080F87C3063
:10426000184670470220704738B590F87C30012B13
:1042700004461BD0012380F87C302423C0F8803012
:1042800003681D681A6822F001021A609A6822F019
:10429000604211439960FFF793FF03681D6020237C
:1042A000C0F88030002084F87C0038BD0220FCE794
:1042B00038B590F87C30012B04461BD0012380F8E0
:1042C0007C302423C0F8803003681D681A6822F00F
:1042D00001021A609A6822F0606211439960FFF748
:1042E0006FFF03681D602023C0F88030002084F831
:1042F0007C0038BD0220FCE710B5002488B01822ED
:10430000214602A88DF8074000F02EFB084B0293CF
:104310000DF1070306932146012302A8079300F03D
:104320009BFAA042ACBF9DF80700FF2008B010BD6B
:104330003F0081002DE9F04FCBB04FF000099DF810
:104340005C410094009D9DF854618DF8280005F1B2
:1043500009070AAC3744E519ADF82910ADF82B2050
:104360008DF82D3032469DF85031569901950CA8A4
:1043700006F1080A8DF82E308DF82F608DF80F9019
:1043800000F0F0FA009B04F80A3004EB0A0B1A461E
:1043900058990BF1010000F0E5FA009B019A0936EB
:1043A00033441D46BDF86431E353BDF86831538092
:1043B0004946182204A800F0D7FA0B4B04930DF1DC
:1043C0000F0801230435494604A80694CDE907588F
:1043D000099300F041FA4845ACBF98F80000FF206F
:1043E0004BB0BDE8F08F00BF3F0083002DE9F041E6
:1043F000C8B080460F4616460021072268461D4673
:1044000000F0B2FA1822002102A88DF820808DF861
:1044100021708DF8226000F0A7FA144B0293032359
:10442000059308AC0723002102A80494CDF818D006
:10443000079300F011FA002816DB9DF8000080B900
:10444000009A9DF80330C2F30F222A809DF80420C1
:1044500043EA02234E9A1380019B4F9AC3F30F2322
:10446000138048B0BDE8F081FF20FAE73F008A00E2
:10447000F0B5C9B000268DF82000024604460DF1C3
:1044800021008DF8076000F06DFA1822314602A86D
:1044900000F06AFA0A4B02930DF10705012308AFF9
:1044A0000134314602A80497CDE90545079300F091
:1044B000D3F9B042ACBF2878FF2049B0F0BD00BFAF
:1044C0003F008E0070B5C8B000258DF8200018227E
:1044D000294602A88DF8075000F046FA094B0293CE
:1044E0000DF10704012308AE294602A80496CDE980
:1044F0000534079300F0B0F9A842ACBF2078FF2044
:1045000048B070BD3F008F0010B5002488B018225D
:10451000214602A88DF8074000F026FA084B0293C6
:104520000DF1070306932146012302A8079300F02B
:1045300093F9A042ACBF9DF80700FF2008B010BD62
:104540003F000101F0B5C9B00027ADF82000ADF87B
:1045500022108DF824204E998DF825301A460DF141
:1045600026001C468DF8077000F0FCF91822394629
:1045700002A800F0F9F90A4B02930DF10706012396
:1045800008AD0634394602A80495CDE905460793DF
:1045900000F062F9B842ACBF3078FF2049B0F0BDFE
:1045A0003F000601F0B5C9B00C46002611468DF853
:1045B000200022460DF122008DF821408DF8076081
:1045C00000F0D0F91822314602A800F0CDF90A4BCC
:1045D00002930DF10705012308AF0234314602A80A
:1045E0000497CDE90545079300F036F9B042ACBF1A
:1045F0002878FF2049B0F0BD3F000C0070B5C8B06E
:1046000000258DF820008DF821101822294602A8D7
:104610008DF8075000F0A8F90A4B02930DF107043A
:104620000223CDE9053408AE0123294602A80496E9
:10463000079300F011F9A842ACBF2078FF2048B0E2
:1046400070BD00BF3F000F0010B5002488B01822D5
:10465000214602A88DF8074000F086F94FF00313B9
:1046600002930DF1070306932146012302A8079345
:1046700000F0F2F8A042ACBF9DF80700FF2008B0A0
:1046800010BD000070B5C8B000258DF820001F22B5
:104690000DF121008DF8075000F064F91822294629
:1046A00002A800F061F90A4B02930DF107042023E0
:1046B000CDE9053408AE0123294602A804960793E4
:1046C00000F0CAF8A842ACBF2078FF2048B070BD07
:1046D0000800090013B5EFF3108472B60C480DF111
:1046E000060100F074FB0DF10601094800F0D0FB53
:1046F00040B184F31088074ABDF80610FBF7DEFFCF
:1047000002B010BD044B01221A7084F31088F7E741
:10471000C0010020D54600082C00002007B5FBF79B
:10472000CBFF022300934FF4805200230349044837
:1047300000F034FA03B05DF804FB00BFE001002094
:10474000C001002070B51446EFF31085431C1BD048
:10475000013801281AD892B172B696B201233246B6
:104760000C4800F02FFA60B10B4B1A784AB10022C6
:104770001A7085F31088094A3146FBF79FFF2046DF
:1047800070BD85F31088FAE70024F8E74FF0FF3496
:10479000F5E700BFC00100202C000020D54600082E
:1047A000FFF7D0BF7FB50F4C4B680F4E20620D4610
:1047B000201D236000F0CCF804F124002D6800F0E7
:1047C000B1F9304640F8045B00F0ACF901233373D3
:1047D00063682BB104A8054A029540F8102D98474C
:1047E00004B070BDE0110020380100201D49000810
:1047F0001FB5164C201D00F098F9C0B9237BB3B14A
:1048000001A9201D00F0BEF9114B01991A6A01237C
:1048100032B104A8039100F8083D90479DF8083094
:104820002373237B01996BB1084600F0C3FC094850
:1048300000F07BF920B9237B13B10648FCF7A4FEF6
:1048400004B010BD034800F07AF9F0E73801002009
:10485000E01100203C0100202DE9F7432C4F3B687C
:1048600005460BB1002098476C882B88DFF8A8908C
:10487000C4F3090444EA8324264BD5E902121868DC
:10488000A4B2C272A0F80940D2B20C3000F0FAFD16
:1048900000217B690846984748F2E800FCF77BFE58
:1048A0004FF00008484600F040F950B1B8F1000F51
:1048B000F2D03B680BB101209847002003B0BDE85F
:1048C000F08301A9484600F05DF9019E737A0F2B31
:1048D0000CD1B6F80D30A34202BF2B69F27A1A70E0
:1048E000337B002BDED04FF00108DBE7B389A34216
:1048F0000CD1B27A6B692869033AD2B29A42A8BF46
:104900001A466A6106F10E0100F0BCFDF37AE8E791
:10491000E0110020380100200412002008B5437A7D
:104920000E3B012B014606D8074800F014F9002081
:10493000FCF72EFE08BD054800F00DF90348BDE860
:104940000840FCF721BE00BF041200203C010020FB
:10495000024B0360024B0361704700BF59500008CF
:104960009950000800F08EBD00F097BD054B064A37
:10497000D979814202D0934202D100231846704770
:10498000083BF5E7F873FF1F0070FF1F1FB500F12C
:104990000C026B4621214FF6664000F085F89DF829
:1049A0000E0005B05DF804FB1FB500F10C026B466C
:1049B0000F214FF6684000F077F89DF80E0005B023
:1049C0005DF804FB10B5054C0146204600F0C3F825
:1049D0002046BDE81040FBF7D8BE00BF6C010020A8
:1049E000034B01201872034B1B6803B11847704733
:1049F0006C010020101200207FB50E4C4B68206225
:104A00000D46201D236000F083F82E680A4D2846CD
:104A1000EE6000F087F8FFF7E3FF01232B74636873
:104A200033B1064A0192064A0396029201A89847BA
:104A300004B070BD101200206C010020054B00086E
:104A4000C54900081FB5164C204600F06EF8C0B9E5
:104A5000237CB3B101A9204600F094F8114B0199D1
:104A60001A6A012332B104A8039100F8083D904767
:104A70009DF808302374237C01996BB1084600F03F
:104A800099FB074800F051F820B9237C13B1044882
:104A9000FBF77BFE04B010BD014800F050F8F0E7D2
:104AA0006C010020101200202DE9F047134C9846AD
:104AB000236881460F4692460BB100209847104D5F
:104AC000E8683A460026A0F80990C77251460C30B3
:104AD0002E7200F0D7FC636931463046984748F2A1
:104AE000E800FBF759FEE9688A7808F1080003320C
:104AF00000F0C8FCBDE8F047FFF772BF10120020BD
:104B00006C01002008B50020FBF743FE08BD000043
:104B1000024B0360024B0361704700BFE95000087D
:104B20001D510008C0E900007047EFF3108272B613
:104B300003681B1A5842584182F310887047EFF3FC
:104B4000108372B60268C1E9002001600A685160F2
:104B500083F310887047EFF3108372B642684A609F
:104B6000086041604A68116083F310887047EFF372
:104B7000108272B6D0E90013196001684B6082F3AD
:104B80001088704710B5EFF3108472B603680B609D
:104B90000068FFF7ECFF84F3108810BD10B59DF896
:104BA000084001600021C0E90311C0E9051142601D
:104BB0000381047714F0020003D0581A18BF0120B3
:104BC000404210BD2DE9F04F058904468B46D0E9DF
:104BD000040185B0002D029314BF4FF000084FF080
:104BE0000208002933D0002D34D166682568431CA3
:104BF000B34228BF9B1B2F5CEB5C023707EB0327FC
:104C0000BFB21546E36883429EBF63681B1ADA1B76
:104C1000029B05EB080088BF002203FB00F69642CA
:104C20001CD3B2FBF0F300FB1323DBB2984515D283
:104C3000227F12F0010F08BF0023900754BF9BB2E0
:104C40001FFA88F365B9002005B0BDE8F08F1DB9E3
:104C50002F46D6E72F46D5E70F46D3E70023F1E7E7
:104C6000314462680B449342EDD82B0A019305EB63
:104C700008034FF0000A9BB2D146CDF800A0039381
:104C8000009B0299206962688B4206D140449042A1
:104C9000236828BF801A1844D6E7384490422389F5
:104CA00028BF801A20618BB9226801991554626867
:104CB000431C9A4298BF9B1A2268D154581C6368BF
:104CC000834298BFC01A63690233636163681B1A29
:104CD0009D422E4628BF1E469D4203D9B542237FE2
:104CE00024D90BBB2368324618440BEB0A0100F0B1
:104CF000C9FB6369039F3344B1466361AE1B002067
:104D000056B1236809EB0A0132461844594400F0B1
:104D1000B9FB63691E446661A3690133A361009B0B
:104D200001330093AA44ABE7002EF5D0DA0721D572
:104D3000238943B923680344FF2203F8022C236824
:104D4000184400F8012C636922891E446661002A18
:104D500038D1236801991D70236859706369023343
:104D600063612E469146022008EB06070023BFB27E
:104D70002361C5E79B07F7D52389002B7FF463AF39
:104D800023680344320A03F8026C236803440BEBE4
:104D90000A0103F8012C23683246184400F072FB24
:104DA000A269636901323344A26122686361AB1B6B
:104DB00013702268190A517062690232B146626149
:104DC0001E46D0E74FF000092E464846CCE7028940
:104DD00003464069002A4FF00002F0B514BF0026D8
:104DE00002260A80002852D01D891F68DC685A6894
:104DF0005DB904F1010C944528BFACEB020C3D5D9C
:104E000017F80CC005EB0C25ADB20D8093F81CC053
:104E10000CF0030CBCF1010F20D14FF6FF7C65456F
:104E200001D11D8945B11D69A54217D21D89ADB1BA
:104E3000A2EB040CAC4511D20444A41A5C611C8999
:104E40000020D8604CB9012A94BFC2F101000120B2
:104E50003C78385C04EB0024A4B20C80D3F80CC07E
:104E60000C885D690CEB0600904204EB060128BF3C
:104E7000801A6D1A38445D6135B104EB0C01314480
:104E8000914228BF891AD9609A69013A9A61F0BDA6
:104E90000389002B4FF000030B804369F0B514BF6A
:104EA00000250225002B35D00289C668D0E90034E0
:104EB00042B9771CA74228BF3F1B9A5DDF5D02EB1A
:104EC000072292B20A80077F07F00307012F1BD148
:104ED0004FF6FF77BA4201D102893AB10269B24274
:104EE00012D2028982B1A71B97420DD202894AB918
:104EF000012C94BFC4F1010001201A78185C02EB68
:104F0000002292B20A800026A819A04228BF001BE6
:104F10001844F0BD1846FCE770477047704770476B
:104F200070477047704770477047704770477047C9
:104F3000704770477047704708B5FFF7EDFFFFF700
:104F4000ECFFFFF7EBFFFFF7EAFFFFF7E9FFFFF7E3
:104F5000E8FFFFF7E7FFFFF7E6FFFFF7E5FFFFF7E3
:104F6000E4FFFFF7E3FFFFF7E2FFFFF7E1FFFFF7E3
:104F7000E1FFFFF7DEFFFFF7DEFF08BD08B5044BDA
:104F800000221A7783F82020FFF7D6FF08BD00BF64
:104F90004801002070B54378FF2B044606D1B0F8D5
:104FA000033003F47F43B3F5406F04D02046BDE8DF
:104FB0007040FCF7E7BA084E0025327FEBB29A4208
:104FC000F4D956F823302046984701350028F4D00C
:104FD000023818BF012070BD4801002037B5094CC8
:104FE000094D0848FFF7A1FD08B103B030BD01A984
:104FF0002046FFF7C7FD2B6901991869FFF7ABFD44
:10500000EFE700BF3812002000000320FCF780BC4F
:105010000F4B104A03F120011360516003F130017E
:10502000916003F13C01116203F14401516203F10B
:105030004C01D16003F15401116103F17001516120
:1050400003F1740180339161D361FCF779BC00BF37
:10505000340103200000032038B50C4D04462846D7
:10506000FFF760FD0A4BA2685B681A60E268DA60CD
:1050700005F10802C3E90125FCF782FC054B226813
:105080009A606268DA60002038BD00BF380A0320E9
:10509000000003203812002008B5044B5B681B6831
:1050A00001221A72FCF774FC002008BD00000320E6
:1050B00037B5084C084D0748FFF737FD08B103B076
:1050C00030BD204601A9FFF75DFDAB680198984708
:1050D000F1E700BF380A032038120020014BDB68DB
:1050E000184700BF3812002038B5094D044628463D
:1050F000FFF718FD074BA268DB68C3E90025FCF742
:105100004FFC054B22681A6162685A61002038BD65
:10511000500A0320000003203812002008B5044B79
:10512000DB681B6810221A72FCF742FC002008BDE5
:1051300000000320024BDA68024B10681B69184715
:10514000000003203812002037B5084C084D0748EE
:10515000FFF7EBFC08B103B030BD204601A9FFF713
:1051600011FD6B6901989847F1E700BF500A0320D1
:105170003812002038B50C4D04462846FFF7D2FC03
:105180000A48FFF7CFFC0A4BA2681B699A60E268E5
:10519000C3E9032522681A6062685A6022695A616D
:1051A00062699A6138BD00BFC00103203812002037
:1051B0000000032008B501460348FFF7CCFC034874
:1051C000BDE80840FCF742BC38120020DD4F000863
:1051D00010B5054C2046FFF7A5FC044B5B691C602D
:1051E000BDE81040FCF748BCC801032000000320C4
:1051F0007047000013B5074C0648FFF796FC08B14E
:1052000002B010BD204601A9FFF7BCFC0198FFF7D2
:10521000EFFFF1E7C8010320024B0022C3E900229F
:10522000704700BF5012002010B5EFF3108472B623
:1052300041B1012903D1064B5A6802435A6084F3F5
:10524000108810BD02494B6823EA00034B60F6E763
:1052500050120020030C1B04A3B90004102310F00B
:105260007F4F04BF0002083310F0704F08BF0001E9
:10527000054A4FEA107008BF0433105CC3F11F03E6
:10528000181A70470023EAE76060000810B514465A
:10529000EFF3108172B6FFF7DDFF034B03EB8000E5
:1052A000046181F3108810BD5812002030B5EFF36F
:1052B000108572B6064B1C6804431C6003EBC103E7
:1052C000D3F890200243C3F8902085F3108830BDB6
:1052D00058120020EFF3108172B6044A136823EAD3
:1052E0000003136081F31088704700BF3000002076
:1052F000EFF3108172B6034A13680343136081F31E
:105300001088704730000020EFF3108172B6034A16
:1053100053680343536081F310887047581200208C
:10532000704770472DE9F041324D334F6E68304081
:1053300068603C46D5E900203B681340034240D0FA
:10534000D7E901310B403CD10240D7F89000104022
:1053500003D1D7F8980001231040DB00E218D2F8FF
:105360009410084204BF4FF0FF31C2F89410E118C6
:10537000D1F8948008EA0000FFF76CFF0123E06099
:1053800003FA00F028EA0000C1F89400EFF310815E
:1053900072B6E26893402268DB431A402260D4F878
:1053A00098201A40C4F89820D4F890201340C4F8EC
:1053B000903081F31088E36804EB83031B699847FE
:1053C000B8E7FFF7ADFFEFF3108772B62A682368DE
:1053D00013406A68134205D1D4E901231A4201D16E
:1053E000FBF7CEF987F31088FFF79BFF6E60BDE8EF
:1053F000F08100BF3000002058120020F8B50B4C9F
:10540000E368A768A06001269E40D4E901510D42DF
:10541000304607D0FFF71EFF25EA0105E060C4E92A
:105420000157F8BDFBF7ADF9EFE700BF58120020B8
:10543000014B1868704700BF3800002070B50D4E52
:105440000D4CA41BA4100025A54209D10B4E0C4CF9
:1054500000F094FCA41BA4100025A54205D170BD4A
:1054600056F8253098470135EEE756F8253098472D
:105470000135F2E76C6100086C6100086C6100089E
:105480007061000810B5431E0A44914200D110BD5E
:1054900011F8014B03F8014FF7E70244034693422A
:1054A00000D1704703F8011BF9E7000070B50E4604
:1054B000054618B183690BB900F00CFAAB69AC680A
:1054C00013B9284600F006FA234B9C4217D16C68AA
:1054D000A3891B071DD52369DBB1013EA36816F81C
:1054E000011F013BA360E9B9002B2EDA22460A21F5
:1054F000284600F03FF8013011D00A2011E0174B88
:105500009C4201D1AC68E3E7154B9C4208BFEC68B4
:10551000DEE72146284600F07FF80028DDD04FF076
:10552000FF3070BD002B04DAA2699A4206DC0A291A
:1055300004D023685A1C22601970CFE722462846FF
:1055400000F018F80130C9D1E9E723680A205A1C95
:1055500022601870E5E700BF24610008446100087C
:1055600004610008024B01461868FFF79FBF00BFA7
:1055700038000020F8B50E461446054618B1836978
:105580000BB900F0A7F9214B9C422AD16C68A369A2
:10559000A360A3891A072ED5236963B32369206802
:1055A000C01A6369F6B28342374604DC21462846B6
:1055B00000F026F928BBA368013BA36023685A1CAE
:1055C00022601E7063690130834204D0A389DB0727
:1055D00019D50A2E17D12146284600F011F990B1AD
:1055E0000FE00B4B9C4201D1AC68D0E7094B9C42C9
:1055F00008BFEC68CBE72146284600F00DF80028EC
:10560000CCD04FF0FF373846F8BD00BF246100080A
:105610004461000804610008324B70B51D680646FD
:105620000C4625B1AB6913B9284600F053F92E4B4F
:105630009C420FD16C68B4F90C309AB215072CD487
:10564000D00611D40922326043F04003A3814FF009
:10565000FF303EE0254B9C4201D1AC68EBE7244B88
:105660009C4208BFEC68E6E7510712D5616B41B177
:1056700004F14403994202D0304600F019FA0023A5
:105680006363A38923F02403A38100236360236958
:105690002360A38943F00803A38123694BB9A3893D
:1056A00003F42073B3F5007F03D02146304600F0A9
:1056B000BFF9A28912F001030CD00023A360636933
:1056C0005B42A361236953B9B4F90C3013F0800035
:1056D000BAD170BD920758BF6369A360F2E700209A
:1056E000F7E700BF3800002024610008446100088B
:1056F000046100088A892DE9F041054610070C462F
:1057000058D44B68002B05DC0B6C002B02DC00200E
:10571000BDE8F081E66A002EF9D0002312F4805231
:105720002F68216A2B6032D0606DA3895A0705D596
:105730006368C01A636B0BB1236CC01A0023024666
:10574000E66A216A2846B047431CA38906D1296826
:105750001D2948D8294ACA40D60744D5002262608C
:10576000D9042269226004D5421C01D12B6803B9F7
:105770006065616B2F600029C9D004F14403994230
:1057800002D0284600F094F900206063C0E70123AE
:105790002846B047411CC8D12B68002BC5D01D2B13
:1057A00001D0162B01D12F60B1E7A38943F040034C
:1057B000A381ADE70F69002FA9D093070E6808BF3A
:1057C0004B690F6018BF0023A6EB07088B60B8F188
:1057D000000F9CDD43463A46216AA66A2846B04738
:1057E000002806DCA38943F04003A3814FF0FF307B
:1057F0008EE70744A8EB0008E9E700BF010040205E
:1058000038B50B6905460C46DBB118B183690BB995
:1058100000F060F80C4B9C4209D16C68B4F90C3074
:105820007BB121462846BDE83840FFF763BF074BF0
:105830009C4201D1AC68F1E7054B9C4208BFEC6883
:10584000ECE7002038BD00BF246100084461000877
:1058500004610008002310B50446C0E900338360EA
:1058600081814366C281C0E90433836119460822FD
:105870005C30FFF712FE054B6362054BA362054BDC
:10588000E362054B2462236310BD00BF215C000866
:10589000435C00087B5C00089F5C0008014900F045
:1058A00085B800BF0158000870B54A1E68255543E9
:1058B0000E4605F1740100F049F9044640B100219B
:1058C000C0E900160C30A06005F16802FFF7E5FDA5
:1058D000204670BD836910B5044633BBC0E912335E
:1058E0000365124B124A1B688262984204BF01236F
:1058F000836100F01FF86060204600F01BF8A06094
:10590000204600F017F80022E06004216068FFF7ED
:10591000A1FF01220921A068FFF79CFF02221221AA
:10592000E068FFF797FF0123A36110BD0061000845
:105930009D580008F8B51B4B1E68B369074613B99C
:105940003046FFF7C7FF4836D6E90134013B03D59F
:10595000336833B13668F7E7B4F90C506DB1683489
:10596000F4E704213846FFF79FFF30600028F1D1AB
:105970000C233B6004462046F8BD0B4B6566C4E92A
:105980000055A560C4E90335C4E905550822294638
:1059900004F15C00FFF781FDC4E90D55C4E912551F
:1059A000E9E700BF006100080100FFFF2DE9F843AF
:1059B0008046894600F14804002614B93046BDE807
:1059C000F883D4E90175013F01D52468F5E7AB8977
:1059D000012B07D9B5F90E30013303D029464046D3
:1059E000C84706436835EEE770B50E46B1F90E10AC
:1059F000002996B014461D4607DA00232B60B389B0
:105A00001A0610D44FF480630EE06A4600F06EF977
:105A10000028F2DB019A02F47042A2F500535A42C8
:105A20005A412A60EEE740230020236016B070BD83
:105A30008B8973B59D0706460C4607D504F14703CD
:105A4000236023610123636102B070BD01AB6A462C
:105A5000FFF7CAFF00990546304600F077F848B9CD
:105A6000B4F90C309A05EFD423F0030343F002039A
:105A7000A381E3E70D4BB362A389206043F0800369
:105A8000A381009B6361019B20615BB1B4F90E109F
:105A9000304600F03DF928B1A38923F0030343F019
:105AA0000103A381A3891D43A581CDE79D5800086B
:105AB00038B50546002945D051F8043C0C1F002B91
:105AC000B8BFE41800F046F91F4A1368104633B90E
:105AD000636014602846BDE8384000F03CB9A3423A
